:020000040800F2
:10000000005000208128000881260008872600086B
:100010008D2600089326000899260008000000009D
:100020000000000000000000000000009F26000803
:10003000AB26000800000000B7260008C326000811
:10004000C9280008C9280008C9280008C9280008CC
:10005000C9280008C9280008C9280008C9280008BC
:10006000C9280008C9280008C9280008C9280008AC
:10007000C9280008C9280008C9280008C92800089C
:10008000C9280008C9280008C9280008C92800088C
:10009000C9280008C9280008C9280008C92800087C
:1000A000C9280008C9280008C9280008C92800086C
:1000B000D1260008C9280008C9280008C928000856
:1000C000C9280008C9280008C9280008C92800084C
:1000D000C9280008C9280008C9280008C92800083C
:1000E000E5260008C9280008C9280008000000000B
:1000F0000000000000000000000000000000000000
:0C01000000000000000000005FF808F1A3
:1001100010B5054C237833B9044B13B10448AFF341
:1001200000800123237010BDD401002000000000D6
:10013000EC82000808B5034B1BB103490348AFF339
:10014000008008BD00000000D8010020EC820008FB
:10015000034613F8012B002AFBD1181A0138704707
:1001600081F0004102E000BF83F0004330B54FEA68
:1001700041044FEA430594EA050F08BF90EA020FD5
:100180001FBF54EA000C55EA020C7FEA645C7FEA68
:10019000655C00F0E2804FEA5454D4EB5555B8BF8B
:1001A0006D420CDD2C4480EA020281EA030382EAFC
:1001B000000083EA010180EA020281EA0303362D8E
:1001C00088BF30BD11F0004F4FEA01314FF4801C61
:1001D0004CEA113102D0404261EB410113F0004F73
:1001E0004FEA03334CEA133302D0524263EB43032A
:1001F00094EA050F00F0A780A4F10104D5F1200EC8
:100200000DDB02FA0EFC22FA05F2801841F1000122
:1002100003FA0EF2801843FA05F359410EE0A5F1F6
:1002200020050EF1200E012A03FA0EFC28BF4CF027
:10023000020C43FA05F3C01851EBE37101F00045DD
:1002400007D54FF0000EDCF1000C7EEB00006EEBEA
:100250000101B1F5801F1BD3B1F5001F0CD3490874
:100260005FEA30004FEA3C0C04F101044FEA4452CB
:1002700012F5800F80F09A80BCF1004F08BF5FEA52
:10028000500C50F1000041EB045141EA050130BD32
:100290005FEA4C0C404141EB0101013C28BFB1F544
:1002A000801FE9D291F0000F04BF01460020B1FA8F
:1002B00081F308BF2033A3F10B03B3F120020CDA62
:1002C0000C3208DD02F1140CC2F10C0201FA0CF040
:1002D00021FA02F10CE002F11402D8BFC2F1200CA5
:1002E00001FA02F120FA0CFCDCBF41EA0C0190405B
:1002F000E41AA2BF01EB0451294330BD6FEA0404A4
:100300001F3C1CDA0C340EDC04F11404C4F120028E
:1003100020FA04F001FA02F340EA030021FA04F3A0
:1003200045EA030130BDC4F10C04C4F1200220FAF7
:1003300002F001FA04F340EA0300294630BD21FA35
:1003400004F0294630BD94F0000F83F4801306BFFB
:1003500081F480110134013D4EE77FEA645C18BFEF
:100360007FEA655C29D094EA050F08BF90EA020F86
:1003700005D054EA000C04BF1946104630BD91EA7E
:10038000030F1EBF0021002030BD5FEA545C05D181
:100390004000494128BF41F0004130BD14F58004C0
:1003A0003CBF01F5801130BD01F0004545F0FE4134
:1003B00041F470014FF0000030BD7FEA645C1ABF69
:1003C000194610467FEA655C1CBF0B46024650EAA0
:1003D000013406BF52EA033591EA030F41F40021CC
:1003E00030BD00BF90F0000F04BF0021704730B552
:1003F0004FF4806404F132044FF000054FF0000127
:1004000050E700BF90F0000F04BF0021704730B5E7
:100410004FF4806404F1320410F0004548BF4042BC
:100420004FF000013EE700BF42004FEAE2014FEA11
:1004300031014FEA02701FBF12F07F4393F07F4FEC
:1004400081F06051704732F07F4208BF704793F0EF
:100450007F4F04BF41F40021704730B54FF4607402
:1004600001F0004521F000411CE700BF50EA010205
:1004700008BF704730B54FF000050AE050EA0102AE
:1004800008BF704730B511F0004502D5404261EB1E
:1004900041014FF4806404F132045FEA915C3FF45F
:1004A000D8AE4FF003025FEADC0C18BF03325FEAFC
:1004B000DC0C18BF033202EBDC02C2F1200300FAAD
:1004C00003FC20FA02F001FA03FE40EA0E0021FAD2
:1004D00002F11444BDE600BF70B54FF0FF0C4CF4C0
:1004E000E06C1CEA11541DBF1CEA135594EA0C0F72
:1004F00095EA0C0F00F0DEF82C4481EA030621EAAD
:100500004C5123EA4C5350EA013518BF52EA0335E7
:1005100041F4801143F4801338D0A0FB02CE4FF099
:100520000005E1FB02E506F00042E0FB03E54FF0C9
:100530000006E1FB03569CF0000F18BF4EF0010EC1
:10054000A4F1FF04B6F5007F64F5407404D25FEABD
:100550004E0E6D4146EB060642EAC62141EA555170
:100560004FEAC52040EA5E504FEACE2EB4F1FD0CB2
:1005700088BFBCF5E06F1ED8BEF1004F08BF5FEA30
:10058000500E50F1000041EB045170BD06F00046E2
:1005900046EA010140EA020081EA0301B4EB5C048F
:1005A000C2BFD4EB0C0541EA045170BD41F4801187
:1005B0004FF0000E013C00F3AB8014F1360FDEBFAC
:1005C000002001F0004170BDC4F10004203C35DA88
:1005D0000C341BDC04F11404C4F1200500FA05F30B
:1005E00020FA04F001FA05F240EA020001F00042AC
:1005F00021F0004110EBD37021FA04F642EB060122
:100600005EEA430E08BF20EAD37070BDC4F10C044B
:10061000C4F1200500FA04F320FA05F001FA04F20F
:1006200040EA020001F0004110EBD37041F10001FB
:100630005EEA430E08BF20EAD37070BDC4F1200506
:1006400000FA05F24EEA020E20FA04F301FA05F26E
:1006500043EA020321FA04F001F0004121FA04F216
:1006600020EA020000EBD3705EEA430E08BF20EAE6
:10067000D37070BD94F0000F0FD101F00046400020
:1006800041EB010111F4801F08BF013CF7D041EAA2
:10069000060195F0000F18BF704703F000465200A6
:1006A00043EB030313F4801F08BF013DF7D043EA77
:1006B0000603704794EA0C0F0CEA135518BF95EA2D
:1006C0000C0F0CD050EA410618BF52EA4306D1D1B4
:1006D00081EA030101F000414FF0000070BD50EAD3
:1006E000410606BF1046194652EA430619D094EA5D
:1006F0000C0F02D150EA013613D195EA0C0F05D147
:1007000052EA03361CBF104619460AD181EA03019A
:1007100001F0004141F0FE4141F470014FF0000052
:1007200070BD41F0FE4141F4780170BD70B54FF0ED
:10073000FF0C4CF4E06C1CEA11541DBF1CEA13556D
:1007400094EA0C0F95EA0C0F00F0A7F8A4EB05044F
:1007500081EA030E52EA03354FEA013100F0888046
:100760004FEA03334FF0805545EA131343EA12630F
:100770004FEA022245EA111545EA10654FEA0026C4
:100780000EF000419D4208BF964244F1FD0404F57D
:10079000407402D25B084FEA3202B61A65EB0305D9
:1007A0005B084FEA32024FF480104FF4002CB6EB96
:1007B000020E75EB030E22BFB61A754640EA0C0016
:1007C0005B084FEA3202B6EB020E75EB030E22BF56
:1007D000B61A754640EA5C005B084FEA3202B6EB97
:1007E000020E75EB030E22BFB61A754640EA9C0056
:1007F0005B084FEA3202B6EB020E75EB030E22BF26
:10080000B61A754640EADC0055EA060E18D04FEAE3
:10081000051545EA16754FEA06164FEAC30343EA83
:1008200052734FEAC2025FEA1C1CC0D111F4801F50
:100830000BD141EA00014FF000004FF0004CB6E749
:1008400011F4801F04BF01430020B4F1FD0C88BFE8
:10085000BCF5E06F3FF6AFAEB5EB030C04BFB6EBF3
:10086000020C5FEA500C50F1000041EB045170BDE6
:100870000EF0004E4EEA113114EB5C04C2BFD4EB13
:100880000C0541EA045170BD41F480114FF0000E97
:10089000013C90E645EA060E8DE60CEA135594EA13
:1008A0000C0F08BF95EA0C0F3FF43BAF94EA0C0F16
:1008B0000AD150EA01347FF434AF95EA0C0F7FF48B
:1008C00025AF104619462CE795EA0C0F06D152EADF
:1008D00003353FF4FDAE1046194622E750EA4106C3
:1008E00018BF52EA43067FF4C5AE50EA41047FF4D4
:1008F0000DAF52EA43057FF4EBAE12E74FF0FF3C39
:1009000006E000BF4FF0010C02E000BF4FF0010C09
:100910004DF804CD4FEA410C7FEA6C5C4FEA430C82
:1009200018BF7FEA6C5C1BD001B050EA410C0CBFD1
:1009300052EA430C91EA030F02BF90EA020F002033
:10094000704710F1000F91EA030F58BF994208BF9A
:1009500090422CBFD8176FEAE37040F00100704757
:100960004FEA410C7FEA6C5C02D150EA013C07D1AE
:100970004FEA430C7FEA6C5CD6D152EA033CD3D0F9
:100980005DF8040B704700BF8446104662468C46F3
:100990001946634600E000BF01B5FFF7B7FF002826
:1009A00048BF10F1000F01BD4DF808EDFFF7F4FF4F
:1009B0000CBF012000205DF808FB00BF4DF808EDDA
:1009C000FFF7EAFF34BF012000205DF808FB00BFFD
:1009D0004DF808EDFFF7E0FF94BF012000205DF81F
:1009E00008FB00BF4DF808EDFFF7CEFF94BF0120D4
:1009F00000205DF808FB00BF4DF808EDFFF7C4FFCD
:100A000034BF012000205DF808FB00BF4FEA410C15
:100A10007FEA6C5C02D150EA013C0AD14FEA430CF8
:100A20007FEA6C5C02D152EA033C02D14FF0000035
:100A300070474FF0010070474FEA410212F5001273
:100A400015D211D56FF47873B3EB625212D94FEA15
:100A5000C12343F0004343EA505311F0004F23FAFF
:100A600002F018BF404270474FF00000704750EA54
:100A7000013005D111F0004008BF6FF00040704711
:100A80004FF00000704700BF4FEA4102B2F1E0436F
:100A900024BFB3F5001CDCF1FE5C0DD901F0004C65
:100AA0004FEAC0024CEA5070B2F1004F40EB8300B5
:100AB00008BF20F00100704711F0804F21D113F1E1
:100AC0003872BCBF01F00040704741F480114FEA1A
:100AD0005252C2F11802C2F1200C10FA0CF320FAA3
:100AE00002F018BF40F001004FEAC1234FEAD323C0
:100AF00003FA0CFC40EA0C0023FA02F34FEA43032A
:100B0000CCE77FEA625307D150EA01331EBF4FF0B2
:100B1000FE4040F44000704701F0004040F0FE40CD
:100B200040F40000704700BF80F0004002E000BFCA
:100B300081F0004142001FBF5FEA410392EA030FC8
:100B40007FEA226C7FEA236C6AD04FEA1262D2EB12
:100B50001363C1BFD218414048404140B8BF5B4217
:100B6000192B88BF704710F0004F40F4000020F0B0
:100B70007F4018BF404211F0004F41F4000121F0C6
:100B80007F4118BF494292EA030F3FD0A2F1010210
:100B900041FA03FC10EB0C00C3F1200301FA03F14E
:100BA00000F0004302D5494260EB4000B0F5000F71
:100BB00013D3B0F1807F06D340084FEA310102F130
:100BC0000102FE2A51D2B1F1004F40EBC25008BFE2
:100BD00020F0010040EA03007047490040EB0000AC
:100BE000013A28BFB0F5000FEDD2B0FA80FCACF1AD
:100BF000080CB2EB0C0200FA0CF0AABF00EBC250DA
:100C000052421843BCBFD0401843704792F0000FC7
:100C100081F4000106BF80F400000132013BB5E71A
:100C20004FEA41037FEA226C18BF7FEA236C21D090
:100C300092EA030F04D092F0000F08BF08467047F5
:100C400090EA010F1CBF0020704712F07F4F04D1C3
:100C5000400028BF40F00040704712F100723CBFD6
:100C600000F50000704700F0004343F0FE4040F400
:100C7000000070477FEA226216BF08467FEA2363BE
:100C80000146420206BF5FEA412390EA010F40F4A9
:100C9000800070474FF0000304E000BF10F00043F5
:100CA00048BF40425FEA000C08BF704743F09643DC
:100CB00001464FF000001CE050EA010208BF7047F7
:100CC0004FF000030AE000BF50EA010208BF70477E
:100CD00011F0004302D5404261EB41015FEA010C93
:100CE00002BF84460146002043F0B64308BFA3F18B
:100CF0008053A3F50003BCFA8CF2083AA3EBC2536D
:100D000010DB01FA02FC634400FA02FCC2F120028B
:100D1000BCF1004F20FA02F243EB020008BF20F0C2
:100D20000100704702F1200201FA02FCC2F1200228
:100D300050EA4C0021FA02F243EB020008BF20EA1D
:100D4000DC7070474FF0FF0C1CEAD0521EBF1CEA4B
:100D5000D15392EA0C0F93EA0C0F6FD01A4480EA39
:100D6000010C400218BF5FEA41211ED04FF0006322
:100D700043EA501043EA5111A0FB01310CF000404E
:100D8000B1F5000F3EBF490041EAD3715B0040EA74
:100D9000010062F17F02FD2A1DD8B3F1004F40EB44
:100DA000C25008BF20F00100704790F0000F0CF017
:100DB000004C08BF49024CEA502040EA51207F3ADB
:100DC000C2BFD2F1FF0340EAC250704740F40000B6
:100DD0004FF00003013A5DDC12F1190FDCBF00F0A7
:100DE00000407047C2F10002410021FA02F1C2F155
:100DF000200200FA02FC5FEA310040F1000053EAF1
:100E00004C0308BF20EADC70704792F0000F00F03E
:100E1000004C02BF400010F4000F013AF9D040EA44
:100E20000C0093F0000F01F0004C02BF490011F4D8
:100E3000000F013BF9D041EA0C018FE70CEAD153D6
:100E400092EA0C0F18BF93EA0C0F0AD030F0004C56
:100E500018BF31F0004CD8D180EA010000F000400A
:100E6000704790F0000F17BF90F0004F084691F0C8
:100E7000000F91F0004F14D092EA0C0F01D1420202
:100E80000FD193EA0C0F03D14B0218BF084608D1CB
:100E900080EA010000F0004040F0FE4040F4000015
:100EA000704740F0FE4040F4400070474FF0FF0CA8
:100EB0001CEAD0521EBF1CEAD15392EA0C0F93EAEF
:100EC0000C0F69D0A2EB030280EA010C49024FEA41
:100ED000402037D04FF0805343EA111143EA1013FA
:100EE0000CF000408B4238BF5B0042F17D024FF4B2
:100EF000000C8B4224BF5B1A40EA0C00B3EB510F8D
:100F000024BFA3EB510340EA5C00B3EB910F24BF75
:100F1000A3EB910340EA9C00B3EBD10F24BFA3EBFA
:100F2000D10340EADC001B0118BF5FEA1C1CE0D1C2
:100F3000FD2A3FF650AF8B4240EBC25008BF20F075
:100F4000010070470CF0004C4CEA50207F32C2BFC9
:100F5000D2F1FF0340EAC250704740F400004FF066
:100F60000003013A37E792F0000F00F0004C02BF97
:100F7000400010F4000F013AF9D040EA0C0093F061
:100F8000000F01F0004C02BF490011F4000F013BBB
:100F9000F9D041EA0C0195E70CEAD15392EA0C0F23
:100FA00008D142027FF47DAF93EA0C0F7FF470AF5B
:100FB000084676E793EA0C0F04D14B023FF44CAF9E
:100FC00008466EE730F0004C18BF31F0004CCAD133
:100FD00030F000427FF45CAF31F000437FF43CAF6F
:100FE0005FE700BF4FF0FF3C06E000BF4FF0010C91
:100FF00002E000BF4FF0010C4DF804CD4FEA400273
:101000004FEA41037FEA226C18BF7FEA236C11D0BC
:1010100001B052EA530C18BF90EA010F58BFB2EB6F
:10102000030088BFC81738BF6FEAE17018BF40F0EF
:10103000010070477FEA226C02D15FEA402C05D1A3
:101040007FEA236CE4D15FEA412CE1D05DF8040B28
:10105000704700BF844608466146FFE70FB5FFF7BB
:10106000C9FF002848BF10F1000F0FBD4DF808ED73
:10107000FFF7F4FF0CBF012000205DF808FB00BF64
:101080004DF808EDFFF7EAFF34BF012000205DF8BE
:1010900008FB00BF4DF808EDFFF7E0FF94BF01200B
:1010A00000205DF808FB00BF4DF808EDFFF7D2FF08
:1010B00094BF012000205DF808FB00BF4DF808ED4B
:1010C000FFF7C8FF34BF012000205DF808FB00BF18
:1010D0004FEA4002B2F1FE4F0FD34FF09E03B3EB45
:1010E00012620DD94FEA002343F0004310F0004F85
:1010F00023FA02F018BF404270474FF000007047DB
:1011000012F1610F01D1420205D110F0004008BF79
:101110006FF0004070474FF00000704780B485B01A
:1011200000AFF860B9607A603B60FB69FA681A60EA
:10113000FB69BA685A60FB697A689A60FB693A6829
:10114000DA60FB69BA691A61002318461437BD4694
:1011500080BC704780B582B000AF78600B46FB70F2
:101160001346BB70FB7803F00103002B0CBF012377
:101170000023DBB21A46FB785340FB70FB7823F068
:101180000203FB70FB789BB21A461821786800F0C6
:101190006CF8BB789BB21A461921786800F065F8A4
:1011A00000BF0837BD4680BD80B582B000AF786013
:1011B0000B467B807B889B099BB2DBB29BB21A46B5
:1011C0001621786800F051F87B8803F03F039BB24A
:1011D0001A461721786800F048F8786800F004F89B
:1011E00000BF0837BD4680BD80B582B000AF7860D3
:1011F00001220021786800F004F800BF0837BD46DE
:1012000080BD80B584B000AF78600B467B8013460C
:101210007B707B88C3F30D03FB817B789BB25B42C1
:101220009BB21AB2B7F90E3053401BB29BB203F413
:1012300080439AB2FB895340FB81FB89184600F03A
:101240005AF80346002B07D1FB8983F07F4383F4D0
:101250007F0383F40043FB81FB891946786800F023
:1012600032F800BF1037BD4680BD80B584B000AFF6
:1012700078600B467B8013463B803B88C3F30D03AD
:10128000FB81FB8923F48043FB81FB89184600F036
:1012900032F80346002B07D1FB8983F07F4383F4A8
:1012A0007F0383F40043FB817B8800221946786822
:1012B000FFF7A7FFFB891946786800F004F800BF24
:1012C0001037BD4680BD80B582B000AF78600B4658
:1012D0007B807B681B6998477B689B6898477B6825
:1012E0001B687A88104698477B68DB68984700BF80
:1012F0000837BD4680BD80B485B000AF0346FB8093
:101300000123FB730CE0FA88FB7B42FA03F31AB269
:10131000B7F9063053401BB2FB80FB7B5B00FB73CD
:10132000FB7B0F2BEFD9FB8803F00103002B0CBFD5
:1013300001230023DBB218461437BD4680BC70473A
:1013400080B586B000AF78607B681B7F012B5CD1D5
:10135000304B1B68002B0AD10021786803F016FD82
:1013600003462D4A13602B4B01221A604DE00021E9
:10137000786803F00BFD0346284A1360274B1A6870
:10138000254B1B689A4207D9244B1A68224B1B68CD
:10139000D31A234A13600FE01F4B1A681F4B1B68B8
:1013A0009A4209D91D4B1A681B4B1B68D31A03F5C7
:1013B0007F43FF331A4A136002F0BCF90346184614
:1013C000FFF768FC03467B6179691648FFF76EFDFD
:1013D00003463B61124B1B681846FFF75BFC034654
:1013E00019463869FFF7AEFC0346FB60F868FFF763
:1013F0001BF802460B460C4804F084FF7B681B6810
:1014000000225A62034B00221A6000BF1837BD4603
:1014100080BD00BFBC030020B0030020B403002047
:10142000B8030020002474490883000880B582B006
:1014300000AF0346FB80C7F800C0B91D4FF0FF3373
:101440000122034802F040FA00BF0837BD4680BDC4
:10145000F001002000000000F0B5A7B002AF07F1D6
:10146000A8037B6607F1140303F1400407F1140598
:10147000AB4B26460FCB86E80F00A560A94BE36077
:1014800007F1140303F1300407F11405A44B2646B9
:101490000FCB86E80F00A560A34BE36007F11403B0
:1014A00003F1200407F114059D4B26460FCB86E877
:1014B0000F00A5609D4BE36007F1140303F11004D6
:1014C00007F11405964B26460FCB86E80F00A56062
:1014D000974BE36007F1140407F11405904B26467F
:1014E0000FCB86E80F00A560924BE36001F0EEF9A8
:1014F00000F0F2FB00F082FE00F056FE00F032FC3D
:1015000000F066FC00F028FD00F0A6FD00F0F8FDFC
:10151000894B42F20F725A63874B42F20F729A6301
:10152000854B4FF46172DA634FF080434FF4617280
:101530009A63814B4FF461721A6400217F4802F074
:10154000C1FF04217D4802F0BDFF08217B4802F065
:10155000B9FF0C21794802F0B5FF0021784802F06C
:10156000B1FF0421764802F0ADFF754802F000FF9C
:101570003C21744803F0EAF83C21734803F0E6F894
:10158000724804F025FF07F11403403343F00103D0
:10159000184607F11403303343F00103194607F1ED
:1015A0001403203343F001031C4607F114031033E6
:1015B00043F001031D4607F1140343F001031A46EB
:1015C0003B46019300922B462246FFF7A7FD3B4680
:1015D000002225211846FFF7BDFD3B460021184695
:1015E000FFF7E2FD564B1B68594A5A623C215548A9
:1015F00003F0ACF8534B1B6800225A623C2152485E
:1016000003F0A4F8504B1B6800225A62514804F0C2
:10161000DFFE4A4B1B6864225A62494B1B686422F6
:101620005A620023C7F88C300023C7F888300023A3
:10163000C7F884300023C7F880300023FB673E4A98
:101640003E4B1B68D26BDA633B4A3C4B1B68126C07
:101650001A644FF080423A4B1B68926B9A63394B85
:101660001B685B6A1846FFF715FB03467B67364B22
:101670001B685B6A1846FFF70DFB03463B674FF498
:101680000051354801F03AFC0346002B10D1D7F841
:1016900084300133C7F8843000BF4FF400512E4826
:1016A00001F02CFC0346002BF7D0322001F070F93A
:1016B000786FFEF7B9FE18A3D3E90023FFF736F8D9
:1016C00002460B4610461946FFF7DEF90346FB6655
:1016D000386FFEF7A9FE10A3D3E90023FFF726F821
:1016E00002460B4610461946FFF7CEF90346BB6685
:1016F000B96EF86EFFF7E2FC0346002B2ED0B96EF0
:10170000F86EFFF715FA03461846FFF7E1FC0346AB
:101710002DE000BFAFF30080A3737E8AE33816404C
:10172000248300082D140008551C0008811C0008A3
:10173000A11C0008C11C0008002C01404802002028
:1017400090020020D80200202003002034830008EB
:10175000E09304008C83000800100140F96EB86E1D
:10176000FFF7E6F903461846FFF7B2FC0346BB67EE
:10177000BB6FB3F5E16F25DDB96EF86EFFF79EFC28
:101780000346002B0FD0F96EA548FFF7D1F90346A9
:10179000B96E1846FFF7CEF903461846FFF798FCD6
:1017A0000346BB670EE0B96E9D48FFF7C1F90346DB
:1017B000F96E1846FFF7BEF903461846FFF788FC96
:1017C0000346BB67D7F88C00FFF768FA0346194653
:1017D000F86EFFF755FC0346002B49D0D7F88C0074
:1017E000FFF75CFA0346F96E1846FFF7A1F90346C6
:1017F0008C491846FFF762FC0346002B1DD0D7F832
:101800008C30C3F561631846FFF748FA0346F96E5A
:101810001846FFF78FF903461846FEF705FE4FF00E
:101820000002814BFEF782FF02460B461046194626
:10183000FFF702F90346FB6766E0D7F88C00FFF775
:101840002DFA0346F96E1846FFF772F9034618465B
:10185000FEF7EAFD4FF00002734BFEF767FF02460A
:101860000B4610461946FFF7E7F80346FB674BE0C7
:10187000D7F88C00FFF712FA03461946F86EFFF707
:1018800057F9034667491846FFF718FC0346002B33
:1018900020D0F96E6248FFF74BF903461C46D7F893
:1018A0008C00FFF7FBF9034619462046FFF742F983
:1018B00003461846FEF7B8FD4FF000025A4BFEF7FC
:1018C00035FF02460B4610461946FFF7B5F80346AA
:1018D000FB6719E0D7F88C00FFF7E0F903461946DB
:1018E000F86EFFF725F903461846FEF79DFD4FF009
:1018F00000024D4BFEF71AFF02460B4610461946F2
:10190000FFF79AF80346FB67D7F88800FFF7C6F998
:1019100003461946B86EFFF7B3FB0346002B4BD0C6
:10192000D7F88800FFF7BAF90346B96E1846FFF7F3
:10193000FFF803463B491846FFF7C0FB0346002B60
:101940001ED0D7F88830C3F561631846FFF7A6F9B3
:101950000346B96E1846FFF7EDF803461846FEF742
:1019600063FD4FF00002304BFEF7E0FE02460B46EF
:1019700010461946FFF760F80346C7F8803070E05C
:10198000D7F88800FFF78AF90346B96E1846FFF7C3
:10199000CFF803461846FEF747FD4FF00002224BF2
:1019A000FEF7C4FE02460B4610461946FFF744F800
:1019B0000346C7F8803054E0D7F88800FFF76EF987
:1019C00003461946B86EFFF7B3F8034615491846A3
:1019D000FFF774FB0346002B28D0B96E1048FFF7C1
:1019E000A7F803461C46D7F88800FFF757F90346C7
:1019F00019462046FFF79EF803461846FEF714FDE9
:101A00004FF00002084BFEF791FE02460B461046CF
:101A10001946FFF711F80346C7F8803021E000BFF0
:101A2000000061450000E14400000440D7F8880050
:101A3000FFF734F903461946B86EFFF779F8034605
:101A40001846FEF7F1FC4FF000027A4BFEF76EFEEF
:101A500002460B4610461946FEF7EEFF0346C7F84E
:101A60008030F86EFFF734FB0346C7F88C30B86E51
:101A7000FFF72EFB0346C7F888306F4804F0A8FC38
:101A8000F86EFEF7D1FC02460B466C4804F03AFCB7
:101A9000B86EFEF7C9FC02460B46694804F032FCFA
:101AA000B96F684804F02EFCD7F88020F96F6648BB
:101AB00004F028FCD7F88410644804F023FCD7F81D
:101AC0008430032B64D0D7F88430032B00F3A98033
:101AD000D7F88430012B04D0D7F88430022B0DD0F6
:101AE0009FE05B4B40F2CA32DA634FF0804340F232
:101AF000CA329A63564B40F2CA321A64D7F8803021
:101B0000B3F5967F04DA524BDA6B0132DA6308E000
:101B1000D7F88030B3F5967F03DD4D4BDA6B013A91
:101B2000DA63FB6FB3F5967F05DA4FF080439A6B6B
:101B300001329A6308E0FB6FB3F5967F04DD4FF046
:101B400080439A6B013A9A63BB6FB3F5E17F04D18E
:101B5000BB6F40F2E242934265D0F96EB86EFFF778
:101B6000ADFA0346002B09D04FF080439A6B013247
:101B70009A63374BDA6B013ADA6354E04FF08043F3
:101B80009A6B013A9A63324BDA6B0132DA634AE0BC
:101B9000D7F88030B3F5967F04DA2D4BDA6B01323B
:101BA000DA6308E0D7F88030B3F5967F03DD284B81
:101BB000DA6B013ADA63FB6FB3F5967F05DA4FF023
:101BC00080439A6B01329A6308E0FB6FB3F5967F0E
:101BD00004DD4FF080439A6B013A9A63BB6FE12BAF
:101BE00004D1BB6F40F2654293421ED0F96EB86ECD
:101BF000FFF764FA0346002B09D04FF080439A6B3D
:101C000001329A63124BDA6B013ADA630DE04FF05E
:101C100080439A6B013A9A630D4BDA6B0132DA63B7
:101C200003E000BF02E000BF00E000BF642000F05E
:101C3000AFFE04E500000440A4830008DC83000834
:101C4000F0830008088400082084000860840008ED
:101C5000002C014080B584B000AFC7F804C0002359
:101C6000FB8107F10E014FF0FF330122034801F021
:101C70006EFFFB8918461037BD4680BDF00100207D
:101C800080B582B000AFC7F804C00022102103481D
:101C900001F04BF900BF0837BD4680BD0008014088
:101CA00080B582B000AFC7F804C0012210210348FC
:101CB00001F03BF900BF0837BD4680BD0008014078
:101CC00080B582B000AFC7F804C0012000F060FE0C
:101CD00000BF0837BD4680BD80B590B000AF07F1AA
:101CE000180328220021184604F052FC3B1D002254
:101CF0001A605A609A60DA601A610123BB614FF47E
:101D0000A023FB6100233B620123BB6202237B63B0
:101D10004FF48033BB634FF4E013FB6307F1180308
:101D2000184601F03DF90346002B01D000F0D2FA2D
:101D30000F237B600223BB600023FB604FF48063B2
:101D40003B6100237B613B1D0221184601F0AAFB89
:101D50000346002B01D000F0BDFA00BF4037BD465E
:101D600080BD000080B500AF174B184A1A60164BB3
:101D70004FF482725A60144B00229A60124B002278
:101D8000DA60114B00221A610F4B01225A610E4B8F
:101D90004FF480229A610C4B3022DA610A4B002208
:101DA0001A62094B00225A62074B00229A62064BC4
:101DB0000A22DA62044801F003FD0346002B01D039
:101DC00000F088FA00BF80BDF00100200030014023
:101DD00080B596B000AF07F1480300221A605A6040
:101DE0009A60DA6007F1400300221A605A6007F136
:101DF000240300221A605A609A60DA601A615A61FC
:101E00009A613B1D20220021184604F0C1FB504B73
:101E1000504A1A604E4B47225A604D4B00229A603E
:101E20004B4B44F61F62DA60494B00221A61484B63
:101E300000225A61464B00229A61454802F048FA56
:101E40000346002B01D000F045FA4FF48053BB64E9
:101E500007F1480319463E4802F0D0FE0346002B26
:101E600001D000F037FA3A4802F0D4FA0346002BCA
:101E700001D000F02FFA00233B6400237B6407F1BC
:101E800040031946324803F08DFA0346002B01D077
:101E900000F020FA60237B620023BB620023FB6218
:101EA00000233B6300237B630023BB630023FB63AE
:101EB00007F1240300221946254802F0DDFD034600
:101EC000002B01D000F006FA07F124030422194682
:101ED0001F4802F0D1FD0346002B01D000F0FAF9B3
:101EE00007F1240308221946194802F0C5FD0346EC
:101EF000002B01D000F0EEF907F124030C22194663
:101F0000134802F0B9FD0346002B01D000F0E2F9BE
:101F100000237B600023BB600023FB6000233B6148
:101F200000237B614FF40053BB6100233B623B1DE8
:101F30001946074803F094FA0346002B01D000F03D
:101F4000C9F9034800F000FB00BF5837BD4680BD0B
:101F500048020020002C014080B58EB000AF07F190
:101F6000280300221A605A609A60DA6007F12003A1
:101F700000221A605A603B1D00221A605A609A6063
:101F8000DA601A615A619A61324B4FF080421A60EE
:101F9000304B47225A602F4B00229A602D4B44F65B
:101FA0001F62DA602B4B00221A612A4B00229A61D1
:101FB000284802F08DF90346002B01D000F08AF981
:101FC0004FF48053BB6207F128031946214802F001
:101FD00015FE0346002B01D000F07CF91D4802F0ED
:101FE00019FA0346002B01D000F074F900233B627C
:101FF00000237B6207F120031946164803F0D2F94B
:102000000346002B01D000F065F960237B600023BC
:10201000BB600023FB6000237B613B1D002219464F
:102020000C4802F029FD0346002B01D000F052F9C4
:102030003B1D04221946074802F01EFD0346002BF3
:1020400001D000F047F9034800F07EFA00BF3837AE
:10205000BD4680BD9002002080B58CB000AF07F176
:102060000C0324220021184604F092FA3B1D0022A2
:102070001A605A60204B214A1A601F4B01225A6095
:102080001D4B00229A601C4B44F61F62DA601A4B0B
:1020900000221A61184B00229A610323FB6000237F
:1020A0003B6101237B610023BB610023FB610023B3
:1020B0003B6201237B620023BB620023FB6207F1CA
:1020C0000C0319460C4802F09FFA0346002B01D07E
:1020D00000F000F900237B600023BB603B1D194624
:1020E000054803F05FF90346002B01D000F0F2F839
:1020F00000BF3037BD4680BDD8020020000400403C
:1021000080B58CB000AF07F10C03242200211846E3
:1021100004F03EFA3B1D00221A605A60204B214A0F
:102120001A601F4B00225A601D4B00229A601C4B04
:1021300044F61F62DA601A4B00221A61184B002223
:102140009A610123FB6000233B6101237B61002333
:10215000BB610023FB6100233B6201237B62002300
:10216000BB620023FB6207F10C0319460C4802F026
:102170004BFA0346002B01D000F0ACF800237B6043
:102180000023BB603B1D1946054803F00BF90346CD
:10219000002B01D000F09EF800BF3037BD4680BD57
:1021A000200300200008004080B500AF114B124A08
:1021B0001A60104B4FF4E1325A600E4B00229A60C5
:1021C0000C4B0022DA600B4B00221A61094B0C22E7
:1021D0005A61084B00229A61064B0022DA610548D9
:1021E00003F0A1F90346002B01D000F073F800BF03
:1021F00080BD00BF680300200044004080B588B067
:1022000000AF07F1100300221A605A609A60DA608A
:10221000244B9B69234A43F010039361214B9B6934
:1022200003F01003FB60FB681E4B9B691D4A43F0E3
:10223000200393611B4B9B6903F02003BB60BB68C9
:10224000184B9B69174A43F004039361154B9B6934
:1022500003F004037B607B68124B9B69114A43F0D7
:10226000080393610F4B9B6903F008033B603B68D5
:102270004FF400533B610C4B7B610023BB6107F1C2
:1022800010031946094800F0B5FC0022002128205F
:1022900000F079FC282000F092FC00BF2037BD46FA
:1022A00080BD00BF0010024000001110001001406E
:1022B00080B582B000AF7860391D4FF6FF73012200
:1022C000034803F080F97B6818460837BD4680BD97
:1022D0006803002080B400AF72B600BFFEE70000C4
:1022E00080B485B000AF154B9B69144A43F00103DD
:1022F0009361124B9B6903F00103BB60BB680F4BFA
:10230000DB690E4A43F08053D3610C4BDB6903F069
:1023100080537B607B680A4B5B68FB60FB6823F043
:10232000E063FB60FB6843F00073FB60044AFB68FA
:10233000536000BF1437BD4680BC70470010024098
:102340000000014080B588B000AF786007F110034D
:1023500000221A605A609A60DA607B681B681B4A28
:1023600093422FD11A4B9B69194A43F480539361CE
:10237000174B9B6903F48053FB60FB68144B9B690C
:10238000134A43F004039361114B9B6903F0040368
:10239000BB60BB68B0233B6102237B610323FB610D
:1023A00007F1100319460B4800F024FC40233B6161
:1023B00000237B610023BB6107F110031946054828
:1023C00000F018FC00BF2037BD4680BD0030014042
:1023D000001002400008014080B584B000AF786072
:1023E0007B681B68164A93420CD1164B9B69154AB1
:1023F00043F400639361134B9B6903F40063FB6038
:10240000FB6818E07B681B68B3F1804F13D10D4B5C
:10241000DB690C4A43F00103D3610A4BDB6903F02B
:102420000103BB60BB68002200211C2000F0ABFB55
:102430001C2000F0C4FB00BF1037BD4680BD00BFAC
:10244000002C01400010024080B58CB000AF7860D5
:1024500007F11C0300221A605A609A60DA607B68F8
:102460001B68334A934236D1324BDB69314A43F021
:102470000203D3612F4BDB6903F00203BB61BB692D
:102480002C4B9B692B4A43F010039361294B9B69AA
:1024900003F010037B617B69C023FB6100233B6277
:1024A00000237B6207F11C031946234800F0A2FBBE
:1024B000224B5B68FB62FB6A23F44063FB62FB6AAE
:1024C00043F0E063FB62FB6A43F44063FB621B4A38
:1024D000FB6A536028E07B681B68194A934223D14A
:1024E000144BDB69134A43F00403D361114BDB69DE
:1024F00003F004033B613B690E4B9B690D4A43F0BB
:10250000080393610B4B9B6903F00803FB60FB68B6
:10251000C023FB6100233B6200237B6207F11C03A5
:102520001946084800F066FB00BF3037BD4680BD45
:102530000004004000100240001001400000014073
:1025400000080040000C014080B588B000AF786002
:1025500007F1100300221A605A609A60DA607B6803
:102560001B68254A934219D1244B9B69234A43F0A7
:1025700004039361214B9B6903F00403FB60FB6838
:102580004FF470633B6102237B610223FB6107F11F
:10259000100319461A4800F02DFB28E07B681B68E1
:1025A000B3F1804F23D1154B9B69144A43F00403C8
:1025B0009361124B9B6903F00403BB60BB6801236A
:1025C0003B6102237B610223FB6107F11003194683
:1025D0000B4800F00FFB02233B6102237B610223C7
:1025E000FB6107F110031946054800F003FB00BF2B
:1025F0002037BD4680BD00BF002C014000100240C6
:102600000008014080B588B000AF786007F1100382
:1026100000221A605A609A60DA607B681B68154A6B
:10262000934223D1144BDB69134A43F40033D36143
:10263000114BDB6903F40033FB60FB680E4B9B69B5
:102640000D4A43F0040393610B4B9B6903F00403B1
:10265000BB60BB680C233B6102237B610223FB61EF
:1026600007F110031946054800F0C4FA00BF2037EF
:10267000BD4680BD004400400010024000080140FB
:1026800080B400AFFEE780B400AFFEE780B400AFD7
:10269000FEE780B400AFFEE780B400AFFEE780B491
:1026A00000AF00BFBD4680BC704780B400AF00BF24
:1026B000BD4680BC704780B400AF00BFBD4680BC43
:1026C000704780B500AF00F047F900BF80BD000043
:1026D00080B500AF024802F0C7F800BF80BD00BF60
:1026E0009002002080B500AF4FF4005000F036FC9F
:1026F00000BF80BD80B400AF01231846BD4680BC3A
:10270000704780B582B000AF7860396003F092FF07
:10271000034616221A604FF0FF3318460837BD46AD
:1027200080BD80B582B000AF78604FF0FF3178682F
:10273000FFF7E7FFFEE780B586B000AFF860B9604D
:102740007A6000237B610AE0AFF300800146BB683A
:102750005A1CBA60CAB21A707B6901337B617A690C
:102760007B689A42F0DB7B6818461837BD4680BD0F
:1027700080B586B000AFF860B9607A6000237B61F5
:1027800009E0BB685A1CBA601B781846FFF790FD39
:102790007B6901337B617A697B689A42F1DB7B68F4
:1027A00018461837BD4680BD80B483B000AF78604E
:1027B0004FF0FF3318460C37BD4680BC704780B4DD
:1027C00083B000AF786039603B684FF400525A60C4
:1027D000002318460C37BD4680BC704780B483B0D8
:1027E00000AF7860012318460C37BD4680BC7047A7
:1027F00080B485B000AFF860B9607A6000231846F5
:102800001437BD4680BC704780B586B000AF786095
:10281000144A154BD31A7B617B693B61134B1B68D0
:10282000002B02D1114B124A1A60104B1A687B68B8
:1028300013443A699A4207D203F0FCFE03460C2285
:102840001A604FF0FF3309E0084B1B68FB60074B31
:102850001A687B681344054A1360FB6818461837EA
:10286000BD4680BD0050002000040000C0030020D1
:102870001805002080B400AF00BFBD4680BC704783
:10288000FFF7F8FF0B480C490C4A002302E0D4582C
:10289000C4500433C4188C42F9D3094A094C0023AC
:1028A00001E013600432A242FBD303F0C9FEFEF73D
:1028B000D3FD704700000020D401002014880008D8
:1028C000D401002014050020FEE7000080B500AF11
:1028D000084B1B68074A43F010031360032000F005
:1028E00047F9002000F008F8FFF7FAFC002318462B
:1028F00080BD00BF0020024080B582B000AF78608C
:10290000124B1A68124B1B7819464FF47A73B3FBBB
:10291000F1F3B2FBF3F3184600F05FF90346002B26
:1029200001D001230EE07B680F2B0AD800227968C2
:102930004FF0FF3000F027F9064A7B681360002350
:1029400000E0012318460837BD4680BD0000002086
:10295000080000200400002080B400AF054B1B7865
:102960001A46054B1B681344034A136000BFBD465B
:1029700080BC704708000020C403002080B400AF72
:10298000024B1B681846BD4680BC7047C40300203C
:1029900080B584B000AF7860FFF7F0FFB8607B6867
:1029A000FB60FB68B3F1FF3F05D00A4B1B781A466A
:1029B000FB681344FB6000BFFFF7E0FF0246BB6803
:1029C000D31AFA689A42F7D800BF00BF1037BD4645
:1029D00080BD00BF0800002080B485B000AF7860E3
:1029E0007B6803F00703FB600C4BDB68BB60BA68D5
:1029F0004FF6FF031340BB60FB681A02BB6813432A
:102A000043F0BF6343F40033BB60044ABB68D36048
:102A100000BF1437BD4680BC704700BF00ED00E02A
:102A200080B400AF044BDB681B0A03F007031846B1
:102A3000BD4680BC704700BF00ED00E080B483B0AD
:102A400000AF0346FB7197F90730002B0BDBFB79D6
:102A500003F01F02064997F907305B09012000FACD
:102A600002F241F8232000BF0C37BD4680BC7047FE
:102A700000E100E080B483B000AF03463960FB7131
:102A800097F90730002B0ADB3B68DAB20C4997F95B
:102A900007301201D2B20B4483F800230AE03B68EE
:102AA000DAB20849FB7903F00F03043B1201D2B2FA
:102AB0000B441A7600BF0C37BD4680BC704700BF80
:102AC00000E100E000ED00E080B489B000AFF86004
:102AD000B9607A60FB6803F00703FB61FB69C3F12F
:102AE0000703042B28BF0423BB61FB690433062BB7
:102AF00002D9FB69033B00E000237B614FF0FF320A
:102B0000BB6902FA03F3DA43BB681A407B699A4057
:102B10004FF0FF317B6901FA03F3D9437B680B4027
:102B2000134318462437BD4680BC704780B582B039
:102B300000AF78607B68013BB3F1807F01D3012354
:102B40000FE00A4A7B68013B53600F214FF0FF30D2
:102B5000FFF790FF054B00229A60044B07221A6092
:102B6000002318460837BD4680BD00BF10E000E0D6
:102B700080B582B000AF78607868FFF72DFF00BFA6
:102B80000837BD4680BD80B586B000AF0346B9604A
:102B90007A60FB7300237B61FFF742FF78617A68FC
:102BA000B9687869FFF790FF024697F90F30114630
:102BB0001846FFF75FFF00BF1837BD4680BD80B5E0
:102BC00082B000AF0346FB7197F907301846FFF754
:102BD00035FF00BF0837BD4680BD80B582B000AF6D
:102BE00078607868FFF7A2FF034618460837BD46AD
:102BF00080BD000080B48BB000AF786039600023E6
:102C00007B6200233B6269E101227B6A02FA03F3E3
:102C1000FB613B681B68FA691340BB61BA69FB69D9
:102C20009A4240F058813B685B689A4A93425ED072
:102C3000984A934275D8984A934258D0964A9342FC
:102C40006FD8964A934252D0944A934269D8944A94
:102C500093424CD0924A934263D8924A934246D0D0
:102C6000904A93425DD8122B2AD8122B59D801A230
:102C700052F823F0EF2C0008C92C0008DB2C0008C8
:102C80001D2D0008232D0008232D0008232D0008EA
:102C9000232D0008232D0008232D0008232D0008D4
:102CA000232D0008232D0008232D0008232D0008C4
:102CB000232D0008232D0008D12C0008E52C000846
:102CC000794A934213D02CE03B68DB683B6229E0F1
:102CD0003B68DB6804333B6224E03B68DB68083315
:102CE0003B621FE03B68DB680C333B621AE03B68E9
:102CF0009B68002B02D104233B6213E03B689B6876
:102D0000012B05D108233B627B68FA691A6109E04F
:102D100008233B627B68FA695A6103E000233B6247
:102D200000E000BFBB69FF2B01D87B6801E07B6836
:102D300004337B61BB69FF2B02D87B6A9B0002E0F6
:102D40007B6A083B9B003B617B691A680F213B69EA
:102D500001FA03F3DB431A40396A3B6901FA03F3D2
:102D60001A437B691A603B685B6803F08053002B51
:102D700000F0B1804D4B9B694C4A43F001039361D5
:102D80004A4B9B6903F00103BB60BB68484A7B6AFE
:102D90009B08023352F82330FB607B6A03F0030385
:102DA0009B000F2202FA03F3DB43FA681340FB6037
:102DB0007B68404A934213D07B683F4A93420DD0D0
:102DC0007B683E4A934207D07B683D4A934201D1DB
:102DD000032306E0042304E0022302E0012300E0D1
:102DE00000237A6A02F0030292009340FA681343C8
:102DF000FB602F497B6A9B080233FA6841F8232065
:102E00003B685B6803F48013002B06D02D4B9A6857
:102E10002C49BB6913438B6006E02A4B9A68BB6957
:102E2000DB43284913408B603B685B6803F4001365
:102E3000002B06D0234BDA682249BB691343CB60D1
:102E400006E0204BDA68BB69DB431E491340CB60C8
:102E50003B685B6803F40033002B06D0194B5A68BB
:102E60001849BB6913434B6006E0164B5A68BB69AF
:102E7000DB43144913404B603B685B6803F48033C9
:102E8000002B21D00F4B1A680E49BB6913430B600E
:102E900021E000BF000032100000311000002210BD
:102EA000000021100000121000001110001002405C
:102EB0000000014000080140000C014000100140EA
:102EC00000140140000401400B4B1A68BB69DB434E
:102ED000094913400B607B6A01337B623B681A68C7
:102EE0007B6A22FA03F3002B7FF48EAE00BF00BF93
:102EF0002C37BD4680BC70470004014080B485B0CB
:102F000000AF78600B467B807B689A687B881340B3
:102F1000002B02D00123FB7301E00023FB73FB7B3A
:102F200018461437BD4680BC704780B483B000AFEC
:102F300078600B467B8013467B707B78002B03D038
:102F40007A887B681A6103E07B881A047B681A61BF
:102F500000BF0C37BD4680BC7047000080B582B012
:102F600000AF0346FB80084B5A69FB881340002BD7
:102F700006D0054AFB885361FB88184600F006F826
:102F800000BF0837BD4680BD0004014080B483B057
:102F900000AF0346FB8000BF0C37BD4680BC7047C6
:102FA00080B586B000AF78607B68002B01D101232B
:102FB00072E27B681B6803F00103002B00F087803E
:102FC000924B5B6803F00C03042B0CD08F4B5B68B7
:102FD00003F00C03082B12D18C4B5B6803F4803395
:102FE000B3F5803F0BD1894B1B6803F40033002BF2
:102FF0006CD07B685B68002B68D101234CE27B6856
:103000005B68B3F5803F06D1804B1B687F4A43F471
:10301000803313602EE07B685B68002B0CD17B4B08
:103020001B687A4A23F480331360784B1B68774A15
:1030300023F4802313601DE07B685B68B3F5A02F49
:103040000CD1724B1B68714A43F4802313606F4BA1
:103050001B686E4A43F4803313600BE06B4B1B68B4
:103060006A4A23F480331360684B1B68674A23F471
:10307000802313607B685B68002B13D0FFF77EFC16
:10308000386108E0FFF77AFC02463B69D31A642BEB
:1030900001D9032300E25D4B1B6803F40033002BCE
:1030A000F0D014E0FFF76AFC386108E0FFF766FC37
:1030B00002463B69D31A642B01D90323ECE1534B3D
:1030C0001B6803F40033002BF0D100E000BF7B68E5
:1030D0001B6803F00203002B63D04C4B5B6803F0CA
:1030E0000C03002B0BD0494B5B6803F00C03082B3F
:1030F0001CD1464B5B6803F48033002B16D1434B45
:103100001B6803F00203002B05D07B681B69012BB1
:1031100001D00123C0E13D4B1B6823F0F8027B681E
:103120005B69DB00394913430B603AE07B681B693C
:10313000002B20D0364B01221A60FFF71FFC3861AC
:1031400008E0FFF71BFC02463B69D31A022B01D9AA
:103150000323A1E12D4B1B6803F00203002BF0D0E9
:103160002A4B1B6823F0F8027B685B69DB00274968
:1031700013430B6015E0264B00221A60FFF7FEFB9D
:10318000386108E0FFF7FAFB02463B69D31A022BCD
:1031900001D9032380E11D4B1B6803F00203002BC0
:1031A000F0D17B681B6803F00803002B3AD07B68E2
:1031B0009B69002B19D0174B01221A60FFF7DEFB29
:1031C000386108E0FFF7DAFB02463B69D31A022BAD
:1031D00001D9032360E10D4B5B6A03F00203002B6E
:1031E000F0D0012000F0CEFA1CE00A4B00221A6059
:1031F000FFF7C4FB38610FE0FFF7C0FB02463B69F5
:10320000D31A022B08D9032346E100BF0010024065
:103210000000424280044242924B5B6A03F0020388
:10322000002BE9D17B681B6803F00403002B00F03E
:10323000A6800023FB758B4BDB6903F08053002BCA
:103240000DD1884BDB69874A43F08053D361854BAE
:10325000DB6903F08053BB60BB680123FB75824BC5
:103260001B6803F48073002B18D17F4B1B687E4AC8
:1032700043F480731360FFF781FB386108E0FFF7C8
:103280007DFB02463B69D31A642B01D9032303E17A
:10329000754B1B6803F48073002BF0D07B68DB68F0
:1032A000012B06D16F4B1B6A6E4A43F00103136278
:1032B0002DE07B68DB68002B0CD16A4B1B6A694AE6
:1032C00023F001031362674B1B6A664A23F0040371
:1032D00013621CE07B68DB68052B0CD1614B1B6A19
:1032E000604A43F0040313625E4B1B6A5D4A43F07D
:1032F000010313620BE05B4B1B6A5A4A23F0010384
:103300001362584B1B6A574A23F0040313627B680D
:10331000DB68002B15D0FFF731FB38610AE0FFF7BF
:103320002DFB02463B69D31A41F28832934201D900
:103330000323B1E04B4B1B6A03F00203002BEED0DA
:1033400014E0FFF71BFB38610AE0FFF717FB0246AA
:103350003B69D31A41F28832934201D903239BE09F
:10336000404B1B6A03F00203002BEED1FB7D012BC7
:1033700005D13C4BDB693B4A23F08053D3617B682A
:10338000DB69002B00F08780364B5B6803F00C0391
:10339000082B61D07B68DB69022B46D1334B0022BE
:1033A0001A60FFF7EBFA386108E0FFF7E7FA024628
:1033B0003B69D31A022B01D903236DE0294B1B680B
:1033C00003F00073002BF0D17B681B6AB3F5803FDC
:1033D00008D1244B5B6823F400327B689B68214949
:1033E00013434B601F4B5B6823F474127B68196AAC
:1033F0007B685B6A0B431B4913434B601B4B0122E9
:103400001A60FFF7BBFA386108E0FFF7B7FA024627
:103410003B69D31A022B01D903233DE0114B1B68F2
:1034200003F00073002BF0D035E0104B00221A603F
:10343000FFF7A4FA386108E0FFF7A0FA02463B69FB
:10344000D31A022B01D9032326E0064B1B6803F095
:103450000073002BF0D11EE07B68DB69012B07D1E4
:10346000012319E000100240007000406000424259
:103470000B4B5B68FB60FB6803F480327B681B6A64
:103480009A4206D1FB6803F470127B685B6A9A4229
:1034900001D0012300E0002318461837BD4680BD47
:1034A0000010024080B584B000AF786039607B685E
:1034B000002B01D10123D0E06A4B1B6803F0070306
:1034C0003A689A4210D9674B1B6823F00702654996
:1034D0003B6813430B60634B1B6803F007033A68B8
:1034E0009A4201D00123B8E07B681B6803F0020315
:1034F000002B20D07B681B6803F00403002B05D051
:10350000594B5B68584A43F4E06353607B681B681F
:1035100003F00803002B05D0534B5B68524A43F479
:1035200060535360504B5B6823F0F0027B689B68EC
:103530004D4913434B607B681B6803F00103002B6C
:1035400040D07B685B68012B07D1474B1B6803F4B5
:103550000033002B15D101237FE07B685B68022BD1
:1035600007D1414B1B6803F00073002B09D10123E5
:1035700073E03D4B1B6803F00203002B01D10123D4
:103580006BE0394B5B6823F003027B685B6836496C
:1035900013434B60FFF7F2F9F8600AE0FFF7EEF92A
:1035A0000246FB68D31A41F28832934201D90323C1
:1035B00053E02D4B5B6803F00C027B685B689B005B
:1035C0009A42EBD1274B1B6803F007033A689A42F3
:1035D00010D2244B1B6823F0070222493B68134397
:1035E0000B60204B1B6803F007033A689A4201D036
:1035F000012332E07B681B6803F00403002B08D032
:10360000194B5B6823F4E0627B68DB68164913435F
:103610004B607B681B6803F00803002B09D0124B3A
:103620005B6823F460527B681B69DB000E4913431F
:103630004B6000F021F802460B4B5B681B0903F05E
:103640000F030A49CB5C22FA03F3094A1360094BC2
:103650001B681846FFF750F9002318461037BD467F
:1036600080BD00BF002002400010024074840008AA
:10367000000000200400002080B487B000AF0023C9
:10368000FB600023BB6000237B6100237B60002381
:103690003B611E4B5B68FB60FB6803F00C03042B73
:1036A00002D0082B03D027E0194B3B6127E0FB68D1
:1036B0009B0C03F00F03174AD35C7B60FB6803F499
:1036C0008033002B10D0114B5B685B0C03F00103BF
:1036D000114AD35CBB607B680D4A03FB02F2BB68F6
:1036E000B2FBF3F37B6104E07B680C4A02FB03F35B
:1036F0007B617B693B6102E0054B3B6100BF3B693D
:1037000018461C37BD4680BC704700BF0010024001
:1037100000127A008C8400089C84000800093D0097
:1037200080B400AF024B1B681846BD4680BC704792
:103730000000002080B500AFFFF7F2FF0246054B06
:103740005B681B0A03F007030349CB5C22FA03F30F
:10375000184680BD001002408484000880B500AF88
:10376000FFF7DEFF0246054B5B68DB0A03F0070349
:103770000349CB5C22FA03F3184680BD00100240D7
:103780008484000880B485B000AF78600A4B1B6861
:103790000A4AA2FB03235B0A7A6802FB03F3FB607D
:1037A00000BFFB685A1EFA60002BF9D100BF00BFB2
:1037B0001437BD4680BC704700000020D34D621016
:1037C00080B582B000AF78607B68002B01D1012307
:1037D00076E07B685B6A002B08D17B685B68B3F599
:1037E000827F09D07B680022DA6105E07B680022D5
:1037F0001A617B6800225A617B6800229A627B68AA
:1038000093F85130DBB2002B06D17B68002283F89D
:1038100050207868FEF796FD7B68022283F85120DD
:103820007B681B681A687B681B6822F040021A607C
:103830007B685B6803F482727B689B6803F40443D3
:103840001A437B68DB6803F400631A437B681B69D7
:1038500003F002031A437B685B6903F001031A4318
:103860007B689B6903F400731A437B68DB6903F090
:1038700038031A437B681B6A03F0800342EA0301A2
:103880007B689B6A03F400527B681B680A431A60DA
:103890007B689B691A0C7B681B6802F004025A6003
:1038A0007B681B68DA697B681B6822F40062DA6156
:1038B0007B6800225A657B68012283F8512000232F
:1038C00018460837BD4680BD80B588B000AFF860A7
:1038D000B9603B601346FB800023FB77FB6893F8DD
:1038E0005030012B01D102232DE1FB68012283F826
:1038F0005020FFF743F8B861FB88FB82FB6893F820
:103900005130DBB2012B02D00223FB7716E1BB68FA
:10391000002B02D0FB88002B02D10123FB770DE1A5
:10392000FB68032283F85120FB6800225A65FB687C
:10393000BA681A63FB68FA889A86FB68FA88DA869E
:10394000FB6800229A63FB6800229A87FB680022CA
:10395000DA87FB6800225A64FB6800221A64FB685D
:103960009B68B3F5004F0FD1FB681B681A68FB68B2
:103970001B6822F040021A60FB681B681A68FB682B
:103980001B6842F480421A60FB681B681B6803F0E6
:103990004003402B07D0FB681B681A68FB681B6854
:1039A00042F040021A60FB68DB68B3F5006F4FD14C
:1039B000FB685B68002B02D0FB8A012B42D1FB68BD
:1039C0001B6B1A88FB681B68DA60FB681B6B9A1C10
:1039D000FB681A63FB68DB8E9BB2013B9AB2FB6803
:1039E000DA862FE0FB681B689B6803F00203022B5A
:1039F00012D1FB681B6B1A88FB681B68DA60FB68D6
:103A00001B6B9A1CFB681A63FB68DB8E9BB2013B45
:103A10009AB2FB68DA8615E0FEF7B0FF0246BB6992
:103A2000D31A3A689A4203D83B68B3F1FF3F02D1F8
:103A30003B68002B06D10323FB77FB68012283F848
:103A400051207BE0FB68DB8E9BB2002BCAD150E09B
:103A5000FB685B68002B02D0FB8A012B44D1FB681A
:103A60001A6BFB681B680C3312781A70FB681B6BAF
:103A70005A1CFB681A63FB68DB8E9BB2013B9AB24F
:103A8000FB68DA8630E0FB681B689B6803F0020382
:103A9000022B13D1FB681A6BFB681B680C3312787E
:103AA0001A70FB681B6B5A1CFB681A63FB68DB8E81
:103AB0009BB2013B9AB2FB68DA8615E0FEF75EFF27
:103AC0000246BB69D31A3A689A4203D83B68B3F1FD
:103AD000FF3F02D13B68002B06D10323FB77FB6835
:103AE000012283F8512029E0FB68DB8E9BB2002B7A
:103AF000C9D1BA693968F86800F0CCFB0346002BDD
:103B000002D0FB6820225A65FB689B68002B0AD113
:103B100000233B61FB681B68DB683B61FB681B683B
:103B20009B683B613B69FB685B6D002B02D0012306
:103B3000FB7703E0FB68012283F85120FB68002239
:103B400083F85020FB7F18462037BD4680BD80B5E6
:103B500088B002AFF860B9603B601346FB80002379
:103B6000FB75FB6893F85130DBB2012B02D00223C6
:103B7000FB75FBE0FB685B68B3F5827F12D1FB68E5
:103B80009B68002B0ED1FB68042283F85120FA8831
:103B90003B6800931346BA68B968F86800F0EFF81C
:103BA0000346E8E0FB6893F85030012B01D1022373
:103BB000E1E0FB68012283F85020FEF7DFFE386168
:103BC000BB68002B02D0FB88002B02D10123FB75C0
:103BD000CCE0FB68042283F85120FB6800225A6580
:103BE000FB68BA689A63FB68FA889A87FB68FA8868
:103BF000DA87FB6800221A63FB6800229A86FB685A
:103C00000022DA86FB6800221A64FB6800225A64EC
:103C1000FB689B68B3F5004F0FD1FB681B681A68FF
:103C2000FB681B6822F040021A60FB681B681A6878
:103C3000FB681B6822F480421A60FB681B681B68E3
:103C400003F04003402B07D0FB681B681A68FB6831
:103C50001B6842F040021A60FB68DB68002B6AD1E7
:103C600032E0FB681B689B6803F00103012B15D150
:103C7000FB681B6803F10C02FB689B6B1278D2B2E5
:103C80001A70FB689B6B5A1CFB689A63FB68DB8F9E
:103C90009BB2013B9AB2FB68DA8715E0FEF76EFE35
:103CA00002463B69D31A3A689A4203D83B68B3F19B
:103CB000FF3F02D13B68002B06D10323FB75FB6855
:103CC000012283F8512051E0FB68DB8F9BB2002B6F
:103CD000C7D135E0FB681B689B6803F00103012B2B
:103CE00013D1FB681B68DA68FB689B6B92B21A8081
:103CF000FB689B6B9A1CFB689A63FB68DB8F9BB22B
:103D0000013B9AB2FB68DA8715E0FEF737FE024600
:103D10003B69D31A3A689A4203D83B68B3F1FF3F34
:103D200002D13B68002B06D10323FB75FB680122FF
:103D300083F851201AE0FB68DB8F9BB2002BC9D1BE
:103D40003A693968F86800F053FA0346002B02D04C
:103D5000FB6820225A65FB685B6D002B02D00123B3
:103D6000FB7503E0FB68012283F85120FB68002209
:103D700083F85020FB7D18461837BD4680BD80B5BE
:103D80008CB000AFF860B9607A607B800123FB6281
:103D9000002387F82B30FB6893F85030012B01D1BA
:103DA000022398E1FB68012283F85020FEF7E6FD2C
:103DB0007862FB6893F8513087F82330FB685B68C2
:103DC000FB617B887B8397F82330012B0FD0FB6945
:103DD000B3F5827F07D1FB689B68002B03D197F86E
:103DE0002330042B03D0022387F82B306DE1BB680E
:103DF000002B05D07B68002B02D07B88002B03D1E1
:103E0000012387F82B3060E1FB6893F85130DBB277
:103E1000042B03D0FB68052283F85120FB680022A5
:103E20005A65FB687A689A63FB687A88DA87FB6868
:103E30007A889A87FB68BA681A63FB687A88DA8698
:103E4000FB687A889A86FB6800221A64FB68002265
:103E50005A64FB681B681B6803F04003402B07D0C3
:103E6000FB681B681A68FB681B6842F040021A6016
:103E7000FB68DB68B3F5006F7CD1FB685B68002BE7
:103E800002D07B8B012B6AD1FB681B6B1A88FB6805
:103E90001B68DA60FB681B6B9A1CFB681A63FB6883
:103EA000DB8E9BB2013B9AB2FB68DA8657E0FB6877
:103EB0001B689B6803F00203022B1BD1FB68DB8E9F
:103EC0009BB2002B16D0FB6A012B13D1FB681B6B36
:103ED0001A88FB681B68DA60FB681B6B9A1CFB681E
:103EE0001A63FB68DB8E9BB2013B9AB2FB68DA86F1
:103EF0000023FB62FB681B689B6803F00103012B36
:103F000019D1FB68DB8F9BB2002B14D0FB681B68B8
:103F1000DA68FB689B6B92B21A80FB689B6B9A1CF9
:103F2000FB689A63FB68DB8F9BB2013B9AB2FB682C
:103F3000DA870123FB62FEF721FD02467B6AD31A72
:103F4000BA6B9A420BD8BB6BB3F1FF3F07D0032388
:103F500087F82B30FB68012283F85120B5E0FB681D
:103F6000DB8E9BB2002BA2D1FB68DB8F9BB2002BB8
:103F70009DD180E0FB685B68002B02D07B8B012B1E
:103F80006FD1FB681A6BFB681B680C3312781A70D0
:103F9000FB681B6B5A1CFB681A63FB68DB8E9BB2C9
:103FA000013B9AB2FB68DA865BE0FB681B689B68A2
:103FB00003F00203022B1CD1FB68DB8E9BB2002BAB
:103FC00017D0FB6A012B14D1FB681A6BFB681B68C6
:103FD0000C3312781A70FB681B6B5A1CFB681A634F
:103FE000FB68DB8E9BB2013B9AB2FB68DA8600234A
:103FF000FB62FB681B689B6803F00103012B19D16E
:10400000FB68DB8F9BB2002B14D0FB681B68DA685F
:10401000FB689B6BD2B21A70FB689B6B5A1CFB68E7
:104020009A63FB68DB8F9BB2013B9AB2FB68DA872D
:104030000123FB62FEF7A2FC02467B6AD31ABA6B2D
:104040009A4203D8BB6BB3F1FF3F02D1BB6B002B8D
:1040500007D1032387F82B30FB68012283F8512016
:1040600033E0FB68DB8E9BB2002B9ED1FB68DB8FBD
:104070009BB2002B99D17A6AB96BF86800F00AF903
:104080000346002B06D0012387F82B30FB68202243
:104090005A651AE0FB689B68002B0AD100237B61FC
:1040A000FB681B68DB687B61FB681B689B687B6146
:1040B0007B69FB685B6D002B03D0012387F82B30F5
:1040C00003E0FB68012283F85120FB68002283F89B
:1040D000502097F82B3018463037BD4680BD000081
:1040E00080B588B000AFF860B9603B601346FB71E3
:1040F000FEF744FC0246BB6A9B1A3A681344FB6114
:10410000FEF73CFCB861394B1B685B011B0DFA697B
:1041100002FB03F37B6154E03B68B3F1FF3F50D0F7
:10412000FEF72CFC0246BB69D31AFA699A4202D9FF
:10413000FB69002B3DD1FB681B685A68FB681B6854
:1041400022F0E0025A60FB685B68B3F5827F11D110
:10415000FB689B68B3F5004F04D0FB689B68B3F520
:10416000806F07D1FB681B681A68FB681B6822F028
:1041700040021A60FB689B6AB3F5005F0FD1FB68D1
:104180001B681A68FB681B6822F400521A60FB68FF
:104190001B681A68FB681B6842F400521A60FB68CF
:1041A000012283F85120FB68002283F8502003236A
:1041B00017E07B69002B01D10023FB617B69013B88
:1041C0007B61FB681B689A68BB681340BA689A42B7
:1041D0000CBF01230023DBB21A46FB799A429BD124
:1041E000002318462037BD4680BD00BF00000020D8
:1041F00080B586B002AFF860B9607A60FB685B6832
:10420000B3F5827F11D1FB689B68B3F5004F04D0F2
:10421000FB689B68B3F5806F07D1FB681B681A6861
:10422000FB681B6822F040021A60FB685B68B3F50C
:10423000827F17D1FB689B68B3F5806F12D17B68D2
:104240000093BB6800220121F868FFF749FF03468D
:10425000002B1AD0FB685B6D43F02002FB685A65A7
:10426000032313E07B680093BB6800228021F86879
:10427000FFF736FF0346002B07D0FB685B6D43F06A
:104280002002FB685A65032300E00023184610371C
:10429000BD4680BD80B586B002AFF860B9607A6077
:1042A0007B680093BB6800228021F868FFF718FF45
:1042B0000346002B07D0FB685B6D43F02002FB68D0
:1042C0005A65032300E0002318461037BD4680BD21
:1042D00080B582B000AF78607B68002B01D10123EC
:1042E00041E07B6893F83D30DBB2002B06D17B6860
:1042F000002283F83C207868FEF76EF87B68022283
:1043000083F83D207B681A687B68043319461046A1
:1043100000F0A4FD7B68012283F846207B6801221F
:1043200083F83E207B68012283F83F207B680122CE
:1043300083F840207B68012283F841207B680122BA
:1043400083F842207B68012283F843207B680122A6
:1043500083F844207B68012283F845207B68012292
:1043600083F83D20002318460837BD4680BD000075
:1043700080B485B000AF78607B6893F83D30DBB2E5
:10438000012B01D001233AE07B68022283F83D2013
:104390007B681B68DA687B681B6842F00102DA60A0
:1043A0007B681B68184A93420ED07B681B68B3F188
:1043B000804F09D07B681B68144A934204D07B6805
:1043C0001B68134A934211D17B681B689B6803F0FA
:1043D0000703FB60FB68062B10D07B681B681A681C
:1043E0007B681B6842F001021A6007E07B681B686B
:1043F0001A687B681B6842F001021A6000231846A5
:104400001437BD4680BC7047002C014000040040BA
:104410000008004080B582B000AF78607B68002B58
:1044200001D1012341E07B6893F83D30DBB2002BE2
:1044300006D17B68002283F83C20786800F039F8C8
:104440007B68022283F83D207B681A687B6804330E
:104450001946104600F002FD7B68012283F84620D1
:104460007B68012283F83E207B68012283F83F208D
:104470007B68012283F840207B68012283F8412079
:104480007B68012283F842207B68012283F8432065
:104490007B68012283F844207B68012283F8452051
:1044A0007B68012283F83D20002318460837BD466B
:1044B00080BD80B483B000AF786000BF0C37BD46CC
:1044C00080BC704780B584B000AF786039603B68CD
:1044D000002B09D17B6893F83E30DBB2012B14BF6F
:1044E00001230023DBB222E03B68042B09D17B6867
:1044F00093F83F30DBB2012B14BF01230023DBB262
:1045000015E03B68082B09D17B6893F84030DBB29B
:10451000012B14BF01230023DBB208E07B6893F872
:104520004130DBB2012B14BF01230023DBB2002B8F
:1045300001D001235EE03B68002B04D17B6802229E
:1045400083F83E2013E03B68042B04D17B680222F1
:1045500083F83F200BE03B68082B04D17B680222E4
:1045600083F8402003E07B68022283F841207B68C7
:104570001B6801223968184600F0F0FE7B681B6852
:104580001E4A934207D17B681B685A6C7B681B6884
:1045900042F400425A647B681B68184A93420ED06A
:1045A0007B681B68B3F1804F09D07B681B68144A95
:1045B000934204D07B681B68124A934211D17B68F6
:1045C0001B689B6803F00703FB60FB68062B10D099
:1045D0007B681B681A687B681B6842F001021A60DE
:1045E00007E07B681B681A687B681B6842F0010261
:1045F0001A60002318461037BD4680BD002C0140CC
:10460000000400400008004080B586B000AF78602C
:1046100039607B68002B01D1012393E07B6893F81C
:104620003D30DBB2002B06D17B68002283F83C20B2
:104630007868FDF709FF7B68022283F83D207B68DC
:104640001B689B687A68126823F4804323F0070391
:1046500093607B681A687B6804331946104600F043
:10466000FDFB7B681B689B687B617B681B689B69A3
:104670003B617B681B681B6AFB603B681B687A694F
:1046800013437B613B6923F4407323F003033B61D5
:104690003B689A683B689B691B0213433A69134362
:1046A0003B613B6923F4406323F00C033B613B69AE
:1046B00023F4704323F0F0033B613B68DA683B6806
:1046C000DB691B0213433A6913433B613B681B6977
:1046D0001A013B681B6A1B0313433A6913433B618E
:1046E000FB6823F02203FB603B685A683B685B6908
:1046F0001B011343FA681343FB607B681B687A69EC
:104700009A607B681B683A699A617B681B68FA68E3
:104710001A627B68012283F846207B68012283F8B5
:104720003E207B68012283F83F207B68012283F8CA
:1047300042207B68012283F843207B68012283F8B2
:104740003D20002318461837BD4680BD80B584B093
:1047500000AF786039607B6893F83E30FB737B680C
:1047600093F83F30BB737B6893F842307B737B6870
:1047700093F843303B733B68002B10D1FB7B012B3C
:1047800002D17B7B012B01D0012369E07B680222EF
:1047900083F83E207B68022283F8422031E03B68A8
:1047A000042B10D1BB7B012B02D13B7B012B01D011
:1047B000012355E07B68022283F83F207B680222B8
:1047C00083F843201DE0FB7B012B08D1BB7B012B31
:1047D00005D17B7B012B02D13B7B012B01D0012337
:1047E0003EE07B68022283F83E207B68022283F849
:1047F0003F207B68022283F842207B68022283F8F4
:1048000043203B68002B03D03B68042B08D00FE00B
:104810007B681B6801220021184600F09FFD16E00E
:104820007B681B6801220421184600F097FD0EE00A
:104830007B681B6801220021184600F08FFD7B6811
:104840001B6801220421184600F088FD00BF7B6828
:104850001B681A687B681B6842F001021A6000231B
:1048600018461037BD4680BD80B582B000AF786075
:104870007B681B681B6903F00203022B22D17B6853
:104880001B68DB6803F00203022B1BD17B681B68EB
:104890006FF002021A617B6801221A777B681B683D
:1048A0009B6903F00303002B03D07868FCF748FDF5
:1048B00005E0786800F0B7FA786800F0BDFA7B6828
:1048C00000221A777B681B681B6903F00403042B22
:1048D00022D17B681B68DB6803F00403042B1BD127
:1048E0007B681B686FF004021A617B6802221A77EA
:1048F0007B681B689B6903F44073002B03D07868C6
:10490000FCF71EFD05E0786800F08DFA786800F08D
:1049100093FA7B6800221A777B681B681B6903F097
:104920000803082B22D17B681B68DB6803F00803AF
:10493000082B1BD17B681B686FF008021A617B682B
:1049400004221A777B681B68DB6903F00303002BE2
:1049500003D07868FCF7F4FC05E0786800F063FAAF
:10496000786800F069FA7B6800221A777B681B6818
:104970001B6903F01003102B22D17B681B68DB68D6
:1049800003F01003102B1BD17B681B686FF0100223
:104990001A617B6808221A777B681B68DB6903F45D
:1049A0004073002B03D07868FCF7CAFC05E07868F8
:1049B00000F039FA786800F03FFA7B6800221A7735
:1049C0007B681B681B6903F00103012B0ED17B6818
:1049D0001B68DB6803F00103012B07D17B681B68B0
:1049E0006FF001021A61786800F014FA7B681B68A6
:1049F0001B6903F08003802B0ED17B681B68DB688A
:104A000003F08003802B07D17B681B686FF0800266
:104A10001A61786800F07EFD7B681B681B6903F0F3
:104A20004003402B0ED17B681B68DB6803F040031A
:104A3000402B07D17B681B686FF040021A617868D1
:104A400000F003FA7B681B681B6903F02003202B2E
:104A50000ED17B681B68DB6803F02003202B07D195
:104A60007B681B686FF020021A61786800F049FDCE
:104A700000BF0837BD4680BD80B586B000AFF86086
:104A8000B9607A600023FB75FB6893F83C30012B1A
:104A900001D10223AEE0FB68012283F83C207B6851
:104AA0000C2B00F29F8001A252F823F0E14A00088B
:104AB000E54B0008E54B0008E54B0008214B0008DA
:104AC000E54B0008E54B0008E54B0008634B000888
:104AD000E54B0008E54B0008E54B0008A34B000838
:104AE000FB681B68B968184600F01AFAFB681B6877
:104AF0009A69FB681B6842F008029A61FB681B68B0
:104B00009A69FB681B6822F004029A61FB681B68C3
:104B10009969BB681A69FB681B680A439A6164E07B
:104B2000FB681B68B968184600F060FAFB681B68F0
:104B30009A69FB681B6842F400629A61FB681B6813
:104B40009A69FB681B6822F480629A61FB681B68A3
:104B50009969BB681B691A02FB681B680A439A6162
:104B600043E0FB681B68B968184600F0A9FAFB68C7
:104B70001B68DA69FB681B6842F00802DA61FB68AF
:104B80001B68DA69FB681B6822F00402DA61FB68C3
:104B90001B68D969BB681A69FB681B680A43DA613C
:104BA00023E0FB681B68B968184600F0F3FAFB685D
:104BB0001B68DA69FB681B6842F40062DA61FB6813
:104BC0001B68DA69FB681B6822F48062DA61FB68A3
:104BD0001B68D969BB681B691A02FB681B680A431A
:104BE000DA6102E00123FB7500BFFB68002283F855
:104BF0003C20FB7D18461837BD4680BD80B584B08B
:104C000000AF786039600023FB737B6893F83C3019
:104C1000012B01D10223B4E07B68012283F83C2000
:104C20007B68022283F83D207B681B689B68BB6021
:104C3000BB6823F07703BB60BB6823F47F43BB6092
:104C40007B681B68BA689A603B681B68B3F5005FB5
:104C50003ED0B3F5005F00F28780B3F5805F00F0CF
:104C60008680B3F5805F7FD8702B1AD0702B7BD8ED
:104C7000602B50D0602B77D8502B3CD0502B73D862
:104C8000402B58D0402B6FD8302B64D0302B6BD8B2
:104C9000202B60D0202B67D8002B5CD0102B5AD053
:104CA00062E07B6818683B6899683B685A683B68B3
:104CB000DB6800F034FB7B681B689B68BB60BB68EB
:104CC00043F07703BB607B681B68BA689A604FE06B
:104CD0007B6818683B6899683B685A683B68DB6882
:104CE00000F01DFB7B681B689A687B681B6842F4B8
:104CF00080429A603CE07B6818683B6859683B6872
:104D0000DB681A4600F094FA7B681B68502118464D
:104D100000F0EBFA2CE07B6818683B6859683B6848
:104D2000DB681A4600F0B2FA7B681B6860211846FF
:104D300000F0DBFA1CE07B6818683B6859683B6848
:104D4000DB681A4600F074FA7B681B68402118463D
:104D500000F0CBFA0CE07B681A683B681B681946C8
:104D6000104600F0C2FA03E00123FB7300E000BF2D
:104D70007B68012283F83D207B68002283F83C2079
:104D8000FB7B18461037BD4680BD000080B485B05F
:104D900000AF786039600023FB603B680C2B31D892
:104DA00001A252F823F000BFDD4D0008054E0008B7
:104DB000054E0008054E0008E74D0008054E0008A6
:104DC000054E0008054E0008F14D0008054E00088C
:104DD000054E0008054E0008FB4D00087B681B6867
:104DE0005B6BFB600FE07B681B689B6BFB600AE002
:104DF0007B681B68DB6BFB6005E07B681B681B6CDA
:104E0000FB6000E000BFFB6818461437BD4680BC5D
:104E1000704700BF80B483B000AF786000BF0C372C
:104E2000BD4680BC704780B483B000AF786000BFDF
:104E30000C37BD4680BC704780B483B000AF78604B
:104E400000BF0C37BD4680BC704780B483B000AF54
:104E5000786000BF0C37BD4680BC704780B485B019
:104E600000AF786039607B681B68FB607B68294A0B
:104E700093420BD07B68B3F1804F07D07B68264A02
:104E8000934203D07B68254A934208D1FB6823F004
:104E90007003FB603B685B68FA681343FB607B68E8
:104EA0001C4A93420BD07B68B3F1804F07D07B68DC
:104EB000194A934203D07B68184A934208D1FB6891
:104EC00023F44073FB603B68DB68FA681343FB60C4
:104ED000FB6823F080023B685B691343FB607B68DF
:104EE000FA681A603B689A687B68DA623B681A68FD
:104EF0007B689A627B68074A934203D13B681A69D0
:104F00007B681A637B6801225A6100BF1437BD4673
:104F100080BC7047002C01400004004000080040A5
:104F200080B487B000AF786039607B681B6A7B61B2
:104F30007B681B6A23F001027B681A627B685B68EE
:104F40003B617B689B69FB60FB6823F07003FB603F
:104F5000FB6823F00303FB603B681B68FA6813439C
:104F6000FB607B6923F002037B613B689B687A6985
:104F700013437B617B681C4A93420CD17B6923F00D
:104F800008037B613B68DB687A6913437B617B695B
:104F900023F004037B617B68134A934211D13B6980
:104FA00023F480733B613B6923F400733B613B68EE
:104FB0005B693A6913433B613B689B693A691343F8
:104FC0003B617B683A695A607B68FA689A613B6822
:104FD0005A687B685A637B687A691A6200BF1C371B
:104FE000BD4680BC704700BF002C014080B487B034
:104FF00000AF786039607B681B6A7B617B681B6AE5
:1050000023F010027B681A627B685B683B617B68F7
:105010009B69FB60FB6823F4E043FB60FB6823F4BF
:105020004073FB603B681B681B02FA681343FB601C
:105030007B6923F020037B613B689B681B017A69D5
:1050400013437B617B681D4A93420DD17B6923F03A
:1050500080037B613B68DB681B017A6913437B61DA
:105060007B6923F040037B617B68144A934213D130
:105070003B6923F480633B613B6923F400633B613C
:105080003B685B699B003A6913433B613B689B69E2
:105090009B003A6913433B617B683A695A607B68BD
:1050A000FA689A613B685A687B689A637B687A6998
:1050B0001A6200BF1C37BD4680BC7047002C0140FF
:1050C00080B487B000AF786039607B681B6A7B6111
:1050D0007B681B6A23F480727B681A627B685B685A
:1050E0003B617B68DB69FB60FB6823F07003FB605E
:1050F000FB6823F00303FB603B681B68FA681343FB
:10510000FB607B6923F400737B613B689B681B0237
:105110007A6913437B617B681D4A93420DD17B6999
:1051200023F400637B613B68DB681B027A691343ED
:105130007B617B6923F480637B617B68144A9342C3
:1051400013D13B6923F480533B613B6923F4005343
:105150003B613B685B691B013A6913433B613B68F8
:105160009B691B013A6913433B617B683A695A604A
:105170007B68FA68DA613B685A687B68DA637B6847
:105180007A691A6200BF1C37BD4680BC704700BFF9
:10519000002C014080B487B000AF786039607B6834
:1051A0001B6A3B617B681B6A23F480527B681A622E
:1051B0007B685B687B617B68DB69FB60FB6823F471
:1051C000E043FB60FB6823F44073FB603B681B68B3
:1051D0001B02FA681343FB603B6923F400533B61F5
:1051E0003B689B681B033A6913433B617B680F4A2A
:1051F000934209D17B6923F480437B613B685B69FF
:105200009B017A6913437B617B687A695A607B688A
:10521000FA68DA613B685A687B681A647B683A69A5
:105220001A6200BF1C37BD4680BC7047002C01408D
:1052300080B487B000AFF860B9607A60FB681B6A21
:105240007B61FB681B6A23F00102FB681A62FB6842
:105250009B693B613B6923F0F0033B617B681B0169
:105260003A6913433B617B6923F00A037B617A69E6
:10527000BB6813437B61FB683A699A61FB687A6992
:105280001A6200BF1C37BD4680BC704780B487B02F
:1052900000AFF860B9607A60FB681B6A7B61FB68ED
:1052A0001B6A23F01002FB681A62FB689B693B6172
:1052B0003B6923F470433B617B681B033A691343EA
:1052C0003B617B6923F0A0037B61BB681B017A69AA
:1052D00013437B61FB683A699A61FB687A691A62D9
:1052E00000BF1C37BD4680BC704780B485B000AF9E
:1052F000786039607B689B68FB60FB6823F0700313
:10530000FB603A68FB68134343F00703FB607B686C
:10531000FA689A6000BF1437BD4680BC704780B4FD
:1053200087B000AFF860B9607A603B60FB689B684B
:105330007B617B6923F47F437B613B681A027B6856
:105340001A43BB6813437A6913437B61FB687A692C
:105350009A6000BF1C37BD4680BC704780B487B0E0
:1053600000AFF860B9607A60BB6803F01F030122E8
:1053700002FA03F37B61FB681A6A7B69DB431A401C
:10538000FB681A62FB681A6ABB6803F01F0379683E
:1053900001FA03F31A43FB681A6200BF1C37BD46CB
:1053A00080BC704780B485B000AF786039607B689E
:1053B00093F83C30012B01D1022346E07B680122A7
:1053C00083F83C207B68022283F83D207B681B68C1
:1053D0005B68FB607B681B689B68BB60FB6823F0B5
:1053E0007003FB603B681B68FA681343FB607B68D3
:1053F0001B68FA685A607B681B68164A93420ED095
:105400007B681B68B3F1804F09D07B681B68124A28
:10541000934204D07B681B68104A93420CD1BB684E
:1054200023F08003BB603B685B68BA681343BB60D2
:105430007B681B68BA689A607B68012283F83D200C
:105440007B68002283F83C20002318461437BD46B1
:1054500080BC7047002C0140000400400008004060
:1054600080B485B000AF786039600023FB607B6852
:1054700093F83C30012B01D102233DE07B680122EF
:1054800083F83C20FB6823F0FF023B68DB68134392
:10549000FB60FB6823F440723B689B681343FB602E
:1054A000FB6823F480623B685B681343FB60FB6826
:1054B00023F400623B681B681343FB60FB6823F422
:1054C00080523B681B691343FB60FB6823F4005266
:1054D0003B685B691343FB60FB6823F480423B68D5
:1054E000DB691343FB607B681B68FA685A647B685E
:1054F000002283F83C20002318461437BD4680BCA8
:10550000704780B483B000AF786000BF0C37BD46F1
:1055100080BC704780B483B000AF786000BF0C37A8
:10552000BD4680BC704780B582B000AF78607B68B4
:10553000002B01D1012342E07B6893F84130DBB2BC
:10554000002B06D17B68002283F840207868FDF7A5
:1055500059F87B68242283F841207B681B68DA684D
:105560007B681B6822F40052DA60786800F01CF94E
:105570007B681B681A697B681B6822F490421A6179
:105580007B681B685A697B681B6822F02A025A6193
:105590007B681B68DA687B681B6842F40052DA603B
:1055A0007B6800225A647B68202283F841207B6854
:1055B000202283F842207B6800225A630023184689
:1055C0000837BD4680BD80B58AB002AFF860B960CB
:1055D0003B601346FB8000237B61FB6893F84130FE
:1055E000DBB2202B6DD1BB68002B02D0FB88002BD7
:1055F00001D1012366E0FB6800225A64FB68212286
:1056000083F84120FDF7BAF97861FB68FA889A843B
:10561000FB68FA88DA84FB689B68B3F5805F08D181
:10562000FB681B69002B04D10023FB61BB68BB61D5
:1056300003E0BB68FB610023BB612AE03B68009389
:105640007B6900228021F86800F040F80346002BB7
:1056500001D0032336E0FB69002B0BD1BB691B880B
:105660001A46FB681B68C2F308025A60BB69023322
:10567000BB6107E0FB691A78FB681B685A60FB692D
:105680000133FB61FB68DB8C9BB2013B9AB2FB6888
:10569000DA84FB68DB8C9BB2002BCFD13B68009394
:1056A0007B6900224021F86800F010F80346002BC7
:1056B00001D0032306E0FB68202283F84120002369
:1056C00000E0022318462037BD4680BD80B590B06B
:1056D00000AFF860B9603B601346FB7150E0BB6CF3
:1056E000B3F1FF3F4CD0BB6C002B07D0FDF746F960
:1056F00002463B68D31ABA6C9A4241D2FB681B68D7
:105700000C33BB62BB6A53E8003F7B627B6A23F4C5
:10571000D073FB63FB681B680C33FA6B7A633B63E3
:10572000396B7A6B41E80023FB62FB6A002BE5D101
:10573000FB681B6814337B617B6953E8003F3B6166
:105740003B6923F00103BB63FB681B681433BA6B2E
:105750003A62FB61F9693A6A41E80023BB61BB69BF
:10576000002BE5D1FB68202283F84120FB68202232
:1057700083F84220FB68002283F8402003230FE0D7
:10578000FB681B681A68BB681340BA689A420CBF72
:1057900001230023DBB21A46FB799A429FD00023F3
:1057A00018464037BD4680BD80B584B000AF7860F4
:1057B0007B681B681B6923F440517B68DA687B684F
:1057C0001B680A431A617B689A687B681B691A43E5
:1057D0007B685B691343BB607B681B68DB6823F4F1
:1057E000B05323F00C037A681268B9680B43D36096
:1057F0007B681B685B6923F440717B689A697B68EE
:105800001B680A435A617B681B682C4A934203D188
:10581000FDF7A4FFF86002E0FDF78CFFF860FA687E
:1058200013469B0013449A001A447B685B689B00F4
:10583000B2FBF3F3224AA2FB03235B091901FA68C6
:1058400013469B0013449A001A447B685B689B00D4
:10585000B2FBF3F21A4BA3FB02035B09642000FBCB
:1058600003F3D31A1B013233154AA2FB03235B094E
:1058700003F0F0031944FA6813469B0013449A009E
:105880001A447B685B689B00B2FBF3F20C4BA3FBF2
:1058900002035B09642000FB03F3D31A1B013233BC
:1058A000074AA2FB03235B0903F00F027B681B6816
:1058B0000A449A6000BF1037BD4680BD00380140E1
:1058C0001F85EB51002B2DE9F0471F46BBBF03F1AD
:1058D00000431F4600232D2388B01446129A109DC2
:1058E0001370149BDDF84CA023F02008B8F1460F8C
:1058F00005D0B8F1450F00D10135022300E00323A4
:1059000007AA049206AACDE902A2CDE900352246F3
:105910003B4600F055FFB8F1470F064602D1119BF8
:10592000DB0722D5B8F1460F06EB050910D1337815
:10593000302B0AD10022002320463946FBF734F8E9
:1059400018B9C5F10105CAF80050DAF800309944D9
:105950000022002320463946FBF726F808B1CDF88F
:105960001C903022079B4B4507D33046079B159A66
:105970009B1B136008B0BDE8F087591C07911A7093
:10598000F0E70346F7B5002903F8022BB6BF2D2236
:105990002B224942092942702ADD0DF107021746E0
:1059A0000A2691FBF6F5944606FB151430340CF8E4
:1059B000014C0C46632C294602F1FF32F1DC3031F8
:1059C000ACF1020402F8011C2246411CBA420AD37F
:1059D0000DF10902A2EB0C02BC4288BF0022134465
:1059E000181A03B0F0BD12F8015B01F8015FEDE792
:1059F000302330318370C170031DF1E72DE9F04F82
:105A000091B00C46DDF8688016461F46054600F04A
:105A1000C7FD036818460993FAF79AFB00230E9313
:105A2000D8F800300A90073323F0070303F1080287
:105A300094F81890D4F800B0C8F80020D3E900A872
:105A400052464346C4E9122328F000430B934FF01B
:105A5000FF3250469C4B0B99FAF7D8FF70BB4FF0C2
:105A6000FF325046984B0B99FAF7B2FF30BB002239
:105A7000002350464146FAF7A1FF10B12D2384F8C8
:105A80004330924A924BB9F1470F94BF90469846E3
:105A900003234FF0000A23612BF0040323603346F5
:105AA0002146284600970FAA00F0D6F9013040F0B1
:105AB00090804FF0FF3011B0BDE8F08F5246434662
:105AC00050464146FAF7A2FF48B1B8F1000FB8BFFF
:105AD0002D23804AB8BF84F843307F4BD3E76368F7
