:020000040800F2
:1000000000500020E52A0008E5280008EB28000839
:10001000F1280008F7280008FD280008000000006B
:10002000000000000000000000000000032900089C
:100030000F290008000000001B29000827290008DC
:100040002D2B00082D2B00082D2B00082D2B000830
:100050002D2B00082D2B00082D2B00082D2B000820
:100060002D2B00082D2B00082D2B00082D2B000810
:100070002D2B00082D2B00082D2B00082D2B000800
:100080002D2B00082D2B00082D2B00082D2B0008F0
:100090002D2B00082D2B00082D2B00082D2B0008E0
:1000A0002D2B00082D2B00082D2B00082D2B0008D0
:1000B000352900082D2B00082D2B00082D2B0008BA
:1000C0002D2B00082D2B00082D2B00082D2B0008B0
:1000D0002D2B00082D2B00082D2B00082D2B0008A0
:1000E000492900082D2B00082D2B000800000000D6
:1000F0000000000000000000000000000000000000
:0C01000000000000000000005FF808F1A3
:1001100010B5054C237833B9044B13B10448AFF341
:1001200000800123237010BDD401002000000000D6
:10013000AC84000808B5034B1BB103490348AFF377
:10014000008008BD00000000D8010020AC84000839
:10015000034613F8012B002AFBD1181A0138704707
:1001600081F0004102E000BF83F0004330B54FEA68
:1001700041044FEA430594EA050F08BF90EA020FD5
:100180001FBF54EA000C55EA020C7FEA645C7FEA68
:10019000655C00F0E2804FEA5454D4EB5555B8BF8B
:1001A0006D420CDD2C4480EA020281EA030382EAFC
:1001B000000083EA010180EA020281EA0303362D8E
:1001C00088BF30BD11F0004F4FEA01314FF4801C61
:1001D0004CEA113102D0404261EB410113F0004F73
:1001E0004FEA03334CEA133302D0524263EB43032A
:1001F00094EA050F00F0A780A4F10104D5F1200EC8
:100200000DDB02FA0EFC22FA05F2801841F1000122
:1002100003FA0EF2801843FA05F359410EE0A5F1F6
:1002200020050EF1200E012A03FA0EFC28BF4CF027
:10023000020C43FA05F3C01851EBE37101F00045DD
:1002400007D54FF0000EDCF1000C7EEB00006EEBEA
:100250000101B1F5801F1BD3B1F5001F0CD3490874
:100260005FEA30004FEA3C0C04F101044FEA4452CB
:1002700012F5800F80F09A80BCF1004F08BF5FEA52
:10028000500C50F1000041EB045141EA050130BD32
:100290005FEA4C0C404141EB0101013C28BFB1F544
:1002A000801FE9D291F0000F04BF01460020B1FA8F
:1002B00081F308BF2033A3F10B03B3F120020CDA62
:1002C0000C3208DD02F1140CC2F10C0201FA0CF040
:1002D00021FA02F10CE002F11402D8BFC2F1200CA5
:1002E00001FA02F120FA0CFCDCBF41EA0C0190405B
:1002F000E41AA2BF01EB0451294330BD6FEA0404A4
:100300001F3C1CDA0C340EDC04F11404C4F120028E
:1003100020FA04F001FA02F340EA030021FA04F3A0
:1003200045EA030130BDC4F10C04C4F1200220FAF7
:1003300002F001FA04F340EA0300294630BD21FA35
:1003400004F0294630BD94F0000F83F4801306BFFB
:1003500081F480110134013D4EE77FEA645C18BFEF
:100360007FEA655C29D094EA050F08BF90EA020F86
:1003700005D054EA000C04BF1946104630BD91EA7E
:10038000030F1EBF0021002030BD5FEA545C05D181
:100390004000494128BF41F0004130BD14F58004C0
:1003A0003CBF01F5801130BD01F0004545F0FE4134
:1003B00041F470014FF0000030BD7FEA645C1ABF69
:1003C000194610467FEA655C1CBF0B46024650EAA0
:1003D000013406BF52EA033591EA030F41F40021CC
:1003E00030BD00BF90F0000F04BF0021704730B552
:1003F0004FF4806404F132044FF000054FF0000127
:1004000050E700BF90F0000F04BF0021704730B5E7
:100410004FF4806404F1320410F0004548BF4042BC
:100420004FF000013EE700BF42004FEAE2014FEA11
:1004300031014FEA02701FBF12F07F4393F07F4FEC
:1004400081F06051704732F07F4208BF704793F0EF
:100450007F4F04BF41F40021704730B54FF4607402
:1004600001F0004521F000411CE700BF50EA010205
:1004700008BF704730B54FF000050AE050EA0102AE
:1004800008BF704730B511F0004502D5404261EB1E
:1004900041014FF4806404F132045FEA915C3FF45F
:1004A000D8AE4FF003025FEADC0C18BF03325FEAFC
:1004B000DC0C18BF033202EBDC02C2F1200300FAAD
:1004C00003FC20FA02F001FA03FE40EA0E0021FAD2
:1004D00002F11444BDE600BF70B54FF0FF0C4CF4C0
:1004E000E06C1CEA11541DBF1CEA135594EA0C0F72
:1004F00095EA0C0F00F0DEF82C4481EA030621EAAD
:100500004C5123EA4C5350EA013518BF52EA0335E7
:1005100041F4801143F4801338D0A0FB02CE4FF099
:100520000005E1FB02E506F00042E0FB03E54FF0C9
:100530000006E1FB03569CF0000F18BF4EF0010EC1
:10054000A4F1FF04B6F5007F64F5407404D25FEABD
:100550004E0E6D4146EB060642EAC62141EA555170
:100560004FEAC52040EA5E504FEACE2EB4F1FD0CB2
:1005700088BFBCF5E06F1ED8BEF1004F08BF5FEA30
:10058000500E50F1000041EB045170BD06F00046E2
:1005900046EA010140EA020081EA0301B4EB5C048F
:1005A000C2BFD4EB0C0541EA045170BD41F4801187
:1005B0004FF0000E013C00F3AB8014F1360FDEBFAC
:1005C000002001F0004170BDC4F10004203C35DA88
:1005D0000C341BDC04F11404C4F1200500FA05F30B
:1005E00020FA04F001FA05F240EA020001F00042AC
:1005F00021F0004110EBD37021FA04F642EB060122
:100600005EEA430E08BF20EAD37070BDC4F10C044B
:10061000C4F1200500FA04F320FA05F001FA04F20F
:1006200040EA020001F0004110EBD37041F10001FB
:100630005EEA430E08BF20EAD37070BDC4F1200506
:1006400000FA05F24EEA020E20FA04F301FA05F26E
:1006500043EA020321FA04F001F0004121FA04F216
:1006600020EA020000EBD3705EEA430E08BF20EAE6
:10067000D37070BD94F0000F0FD101F00046400020
:1006800041EB010111F4801F08BF013CF7D041EAA2
:10069000060195F0000F18BF704703F000465200A6
:1006A00043EB030313F4801F08BF013DF7D043EA77
:1006B0000603704794EA0C0F0CEA135518BF95EA2D
:1006C0000C0F0CD050EA410618BF52EA4306D1D1B4
:1006D00081EA030101F000414FF0000070BD50EAD3
:1006E000410606BF1046194652EA430619D094EA5D
:1006F0000C0F02D150EA013613D195EA0C0F05D147
:1007000052EA03361CBF104619460AD181EA03019A
:1007100001F0004141F0FE4141F470014FF0000052
:1007200070BD41F0FE4141F4780170BD70B54FF0ED
:10073000FF0C4CF4E06C1CEA11541DBF1CEA13556D
:1007400094EA0C0F95EA0C0F00F0A7F8A4EB05044F
:1007500081EA030E52EA03354FEA013100F0888046
:100760004FEA03334FF0805545EA131343EA12630F
:100770004FEA022245EA111545EA10654FEA0026C4
:100780000EF000419D4208BF964244F1FD0404F57D
:10079000407402D25B084FEA3202B61A65EB0305D9
:1007A0005B084FEA32024FF480104FF4002CB6EB96
:1007B000020E75EB030E22BFB61A754640EA0C0016
:1007C0005B084FEA3202B6EB020E75EB030E22BF56
:1007D000B61A754640EA5C005B084FEA3202B6EB97
:1007E000020E75EB030E22BFB61A754640EA9C0056
:1007F0005B084FEA3202B6EB020E75EB030E22BF26
:10080000B61A754640EADC0055EA060E18D04FEAE3
:10081000051545EA16754FEA06164FEAC30343EA83
:1008200052734FEAC2025FEA1C1CC0D111F4801F50
:100830000BD141EA00014FF000004FF0004CB6E749
:1008400011F4801F04BF01430020B4F1FD0C88BFE8
:10085000BCF5E06F3FF6AFAEB5EB030C04BFB6EBF3
:10086000020C5FEA500C50F1000041EB045170BDE6
:100870000EF0004E4EEA113114EB5C04C2BFD4EB13
:100880000C0541EA045170BD41F480114FF0000E97
:10089000013C90E645EA060E8DE60CEA135594EA13
:1008A0000C0F08BF95EA0C0F3FF43BAF94EA0C0F16
:1008B0000AD150EA01347FF434AF95EA0C0F7FF48B
:1008C00025AF104619462CE795EA0C0F06D152EADF
:1008D00003353FF4FDAE1046194622E750EA4106C3
:1008E00018BF52EA43067FF4C5AE50EA41047FF4D4
:1008F0000DAF52EA43057FF4EBAE12E74FF0FF3C39
:1009000006E000BF4FF0010C02E000BF4FF0010C09
:100910004DF804CD4FEA410C7FEA6C5C4FEA430C82
:1009200018BF7FEA6C5C1BD001B050EA410C0CBFD1
:1009300052EA430C91EA030F02BF90EA020F002033
:10094000704710F1000F91EA030F58BF994208BF9A
:1009500090422CBFD8176FEAE37040F00100704757
:100960004FEA410C7FEA6C5C02D150EA013C07D1AE
:100970004FEA430C7FEA6C5CD6D152EA033CD3D0F9
:100980005DF8040B704700BF8446104662468C46F3
:100990001946634600E000BF01B5FFF7B7FF002826
:1009A00048BF10F1000F01BD4DF808EDFFF7F4FF4F
:1009B0000CBF012000205DF808FB00BF4DF808EDDA
:1009C000FFF7EAFF34BF012000205DF808FB00BFFD
:1009D0004DF808EDFFF7E0FF94BF012000205DF81F
:1009E00008FB00BF4DF808EDFFF7CEFF94BF0120D4
:1009F00000205DF808FB00BF4DF808EDFFF7C4FFCD
:100A000034BF012000205DF808FB00BF4FEA410C15
:100A10007FEA6C5C02D150EA013C0AD14FEA430CF8
:100A20007FEA6C5C02D152EA033C02D14FF0000035
:100A300070474FF0010070474FEA410212F5001273
:100A400015D211D56FF47873B3EB625212D94FEA15
:100A5000C12343F0004343EA505311F0004F23FAFF
:100A600002F018BF404270474FF00000704750EA54
:100A7000013005D111F0004008BF6FF00040704711
:100A80004FF00000704700BF4FEA4102B2F1E0436F
:100A900024BFB3F5001CDCF1FE5C0DD901F0004C65
:100AA0004FEAC0024CEA5070B2F1004F40EB8300B5
:100AB00008BF20F00100704711F0804F21D113F1E1
:100AC0003872BCBF01F00040704741F480114FEA1A
:100AD0005252C2F11802C2F1200C10FA0CF320FAA3
:100AE00002F018BF40F001004FEAC1234FEAD323C0
:100AF00003FA0CFC40EA0C0023FA02F34FEA43032A
:100B0000CCE77FEA625307D150EA01331EBF4FF0B2
:100B1000FE4040F44000704701F0004040F0FE40CD
:100B200040F40000704700BF80F0004002E000BFCA
:100B300081F0004142001FBF5FEA410392EA030FC8
:100B40007FEA226C7FEA236C6AD04FEA1262D2EB12
:100B50001363C1BFD218414048404140B8BF5B4217
:100B6000192B88BF704710F0004F40F4000020F0B0
:100B70007F4018BF404211F0004F41F4000121F0C6
:100B80007F4118BF494292EA030F3FD0A2F1010210
:100B900041FA03FC10EB0C00C3F1200301FA03F14E
:100BA00000F0004302D5494260EB4000B0F5000F71
:100BB00013D3B0F1807F06D340084FEA310102F130
:100BC0000102FE2A51D2B1F1004F40EBC25008BFE2
:100BD00020F0010040EA03007047490040EB0000AC
:100BE000013A28BFB0F5000FEDD2B0FA80FCACF1AD
:100BF000080CB2EB0C0200FA0CF0AABF00EBC250DA
:100C000052421843BCBFD0401843704792F0000FC7
:100C100081F4000106BF80F400000132013BB5E71A
:100C20004FEA41037FEA226C18BF7FEA236C21D090
:100C300092EA030F04D092F0000F08BF08467047F5
:100C400090EA010F1CBF0020704712F07F4F04D1C3
:100C5000400028BF40F00040704712F100723CBFD6
:100C600000F50000704700F0004343F0FE4040F400
:100C7000000070477FEA226216BF08467FEA2363BE
:100C80000146420206BF5FEA412390EA010F40F4A9
:100C9000800070474FF0000304E000BF10F00043F5
:100CA00048BF40425FEA000C08BF704743F09643DC
:100CB00001464FF000001CE050EA010208BF7047F7
:100CC0004FF000030AE000BF50EA010208BF70477E
:100CD00011F0004302D5404261EB41015FEA010C93
:100CE00002BF84460146002043F0B64308BFA3F18B
:100CF0008053A3F50003BCFA8CF2083AA3EBC2536D
:100D000010DB01FA02FC634400FA02FCC2F120028B
:100D1000BCF1004F20FA02F243EB020008BF20F0C2
:100D20000100704702F1200201FA02FCC2F1200228
:100D300050EA4C0021FA02F243EB020008BF20EA1D
:100D4000DC7070474FF0FF0C1CEAD0521EBF1CEA4B
:100D5000D15392EA0C0F93EA0C0F6FD01A4480EA39
:100D6000010C400218BF5FEA41211ED04FF0006322
:100D700043EA501043EA5111A0FB01310CF000404E
:100D8000B1F5000F3EBF490041EAD3715B0040EA74
:100D9000010062F17F02FD2A1DD8B3F1004F40EB44
:100DA000C25008BF20F00100704790F0000F0CF017
:100DB000004C08BF49024CEA502040EA51207F3ADB
:100DC000C2BFD2F1FF0340EAC250704740F40000B6
:100DD0004FF00003013A5DDC12F1190FDCBF00F0A7
:100DE00000407047C2F10002410021FA02F1C2F155
:100DF000200200FA02FC5FEA310040F1000053EAF1
:100E00004C0308BF20EADC70704792F0000F00F03E
:100E1000004C02BF400010F4000F013AF9D040EA44
:100E20000C0093F0000F01F0004C02BF490011F4D8
:100E3000000F013BF9D041EA0C018FE70CEAD153D6
:100E400092EA0C0F18BF93EA0C0F0AD030F0004C56
:100E500018BF31F0004CD8D180EA010000F000400A
:100E6000704790F0000F17BF90F0004F084691F0C8
:100E7000000F91F0004F14D092EA0C0F01D1420202
:100E80000FD193EA0C0F03D14B0218BF084608D1CB
:100E900080EA010000F0004040F0FE4040F4000015
:100EA000704740F0FE4040F4400070474FF0FF0CA8
:100EB0001CEAD0521EBF1CEAD15392EA0C0F93EAEF
:100EC0000C0F69D0A2EB030280EA010C49024FEA41
:100ED000402037D04FF0805343EA111143EA1013FA
:100EE0000CF000408B4238BF5B0042F17D024FF4B2
:100EF000000C8B4224BF5B1A40EA0C00B3EB510F8D
:100F000024BFA3EB510340EA5C00B3EB910F24BF75
:100F1000A3EB910340EA9C00B3EBD10F24BFA3EBFA
:100F2000D10340EADC001B0118BF5FEA1C1CE0D1C2
:100F3000FD2A3FF650AF8B4240EBC25008BF20F075
:100F4000010070470CF0004C4CEA50207F32C2BFC9
:100F5000D2F1FF0340EAC250704740F400004FF066
:100F60000003013A37E792F0000F00F0004C02BF97
:100F7000400010F4000F013AF9D040EA0C0093F061
:100F8000000F01F0004C02BF490011F4000F013BBB
:100F9000F9D041EA0C0195E70CEAD15392EA0C0F23
:100FA00008D142027FF47DAF93EA0C0F7FF470AF5B
:100FB000084676E793EA0C0F04D14B023FF44CAF9E
:100FC00008466EE730F0004C18BF31F0004CCAD133
:100FD00030F000427FF45CAF31F000437FF43CAF6F
:100FE0005FE700BF4FF0FF3C06E000BF4FF0010C91
:100FF00002E000BF4FF0010C4DF804CD4FEA400273
:101000004FEA41037FEA226C18BF7FEA236C11D0BC
:1010100001B052EA530C18BF90EA010F58BFB2EB6F
:10102000030088BFC81738BF6FEAE17018BF40F0EF
:10103000010070477FEA226C02D15FEA402C05D1A3
:101040007FEA236CE4D15FEA412CE1D05DF8040B28
:10105000704700BF844608466146FFE70FB5FFF7BB
:10106000C9FF002848BF10F1000F0FBD4DF808ED73
:10107000FFF7F4FF0CBF012000205DF808FB00BF64
:101080004DF808EDFFF7EAFF34BF012000205DF8BE
:1010900008FB00BF4DF808EDFFF7E0FF94BF01200B
:1010A00000205DF808FB00BF4DF808EDFFF7D2FF08
:1010B00094BF012000205DF808FB00BF4DF808ED4B
:1010C000FFF7C8FF34BF012000205DF808FB00BF18
:1010D0004FEA4002B2F1FE4F0FD34FF09E03B3EB45
:1010E00012620DD94FEA002343F0004310F0004F85
:1010F00023FA02F018BF404270474FF000007047DB
:1011000012F1610F01D1420205D110F0004008BF79
:101110006FF0004070474FF00000704780B485B01A
:1011200000AFF860B9607A603B60FB69FA681A60EA
:10113000FB69BA685A60FB697A689A60FB693A6829
:10114000DA60FB69BA691A61002318461437BD4694
:1011500080BC704780B582B000AF78600B46FB70F2
:101160001346BB70FB7803F00103002B0CBF012377
:101170000023DBB21A46FB785340FB70FB7823F068
:101180000203FB70FB789BB21A461821786800F0C6
:101190006CF8BB789BB21A461921786800F065F8A4
:1011A00000BF0837BD4680BD80B582B000AF786013
:1011B0000B467B807B889B099BB2DBB29BB21A46B5
:1011C0001621786800F051F87B8803F03F039BB24A
:1011D0001A461721786800F048F8786800F004F89B
:1011E00000BF0837BD4680BD80B582B000AF7860D3
:1011F00001220021786800F004F800BF0837BD46DE
:1012000080BD80B584B000AF78600B467B8013460C
:101210007B707B88C3F30D03FB817B789BB25B42C1
:101220009BB21AB2B7F90E3053401BB29BB203F413
:1012300080439AB2FB895340FB81FB89184600F03A
:101240005AF80346002B07D1FB8983F07F4383F4D0
:101250007F0383F40043FB81FB891946786800F023
:1012600032F800BF1037BD4680BD80B584B000AFF6
:1012700078600B467B8013463B803B88C3F30D03AD
:10128000FB81FB8923F48043FB81FB89184600F036
:1012900032F80346002B07D1FB8983F07F4383F4A8
:1012A0007F0383F40043FB817B8800221946786822
:1012B000FFF7A7FFFB891946786800F004F800BF24
:1012C0001037BD4680BD80B582B000AF78600B4658
:1012D0007B807B681B6998477B689B6898477B6825
:1012E0001B687A88104698477B68DB68984700BF80
:1012F0000837BD4680BD80B485B000AF0346FB8093
:101300000123FB730CE0FA88FB7B42FA03F31AB269
:10131000B7F9063053401BB2FB80FB7B5B00FB73CD
:10132000FB7B0F2BEFD9FB8803F00103002B0CBFD5
:1013300001230023DBB218461437BD4680BC70473A
:1013400080B586B000AF78607B681B7F012B5CD1D5
:10135000304B1B68002B0AD10021786803F0F6FDA2
:1013600003462D4A13602B4B01221A604DE00021E9
:10137000786803F0EBFD0346284A1360274B1A6890
:10138000254B1B689A4207D9244B1A68224B1B68CD
:10139000D31A234A13600FE01F4B1A681F4B1B68B8
:1013A0009A4209D91D4B1A681B4B1B68D31A03F5C7
:1013B0007F43FF331A4A136002F0EEFA03461846E1
:1013C000FFF768FC03467B6179691648FFF76EFDFD
:1013D00003463B61124B1B681846FFF75BFC034654
:1013E00019463869FFF7AEFC0346FB60F868FFF763
:1013F0001BF802460B460C4805F064F87B681B6836
:1014000000225A62034B00221A6000BF1837BD4603
:1014100080BD00BFBC030020B0030020B403002047
:10142000B803002000247449C884000880B582B045
:1014300000AF0346FB80C7F800C0B91D4FF0FF3373
:101440000122034802F072FB00BF0837BD4680BD91
:10145000F001002000000000F0B5BDB004AF07F1BE
:10146000F803BB6607F1180303F1400407F1180500
:10147000C14B26460FCB86E80F00A560BF4BE3604B
:1014800007F1180303F1300407F11805BA4B26469B
:101490000FCB86E80F00A560B94BE36007F1180396
:1014A00003F1200407F11805B34B26460FCB86E85D
:1014B0000F00A560B34BE36007F1180303F11004BC
:1014C00007F11805AC4B26460FCB86E80F00A56048
:1014D000AD4BE36007F1180407F11805A64B26464B
:1014E0000FCB86E80F00A560A84BE36001F020FB5E
:1014F00000F060FD00F0C4FF00F098FF00F0A0FDD8
:1015000000F0D4FD00F096FE00F0E8FE00F03AFF97
:101510009F4B4FF461725A639D4B4FF46172DA63D3
:101520009B4B4FF461721A6400219A4803F0AAF8A9
:101530000421994803F0A6F80821964803F0A2F880
:101540000C21944803F09EF83C21944803F0DEF906
:101550003C21914803F0DAF93C21914803F0D6F997
:10156000904805F015F807F11803403343F00103E4
:10157000184607F11803303343F00103194607F109
:101580001803203343F001031C4607F118031033FE
:1015900043F001031D4607F1180343F001031A4607
:1015A0003B1D019300922B462246FFF7B7FD3B1DE2
:1015B000002225211846FFF7CDFD3B1D00211846CE
:1015C000FFF7F2FD3C21754803F0A0F9734B1B684F
:1015D00000225A623C21704803F098F96E4B1B6858
:1015E00000225A623C216E4803F090F96C4B1B6854
:1015F00000225A620023C7F8DC300023C7F8D83035
:101600000023C7F8D4300023C7F8D0300023C7F830
:10161000CC300023C7F8C8300023C7F8C4300023FB
:10162000C7F8BC300023C7F8B8300023C7F8B4307F
:101630000023C7F8B0300023C7F8AC300023C7F848
:10164000A830594804F0A4FF01F0CAFAC7F8A40072
:10165000564B1B68D7F8A420D31A1846FEF7C2FED3
:1016600002460B46C7E92623504AD7F8A430136038
:101670004A4B1B685B6A1846FFF70CFB0346C7F82A
:101680009430454B1B685B6A1846FFF703FB034623
:10169000C7F89030424B1B685B6A1846FFF7FAFAAE
:1016A0000346C7F88C304FF40051414801F058FD13
:1016B0000346002B10D1D7F8DC300133C7F8DC30FB
:1016C00000BF4FF400513A4801F04AFD0346002B99
:1016D000F7D0322001F08EFAD7F89000FEF7A4FE82
:1016E00023A3D3E90023FFF721F802460B46104657
:1016F0001946FFF7C9F90346C7F88830D7F88C00B8
:10170000FEF792FE1AA3D3E90023FFF70FF8024673
:101710000B4610461946FFF7B7F90346C7F8843061
:10172000D7F89400FEF780FE11A3D3E90023FEF75B
:10173000FDFF02460B4610461946FFF7A5F9034682
:10174000C7F88030D7F88410D7F88800FFF7B6FCC8
:101750000346002B2ED0D7F88410D7F88800FFF767
:10176000E7F903461846FFF7B3FC03462DE000BF38
:10177000A3737E8AE3381640E48400082D14000821
:10178000311F00085D1F00087D1F00089D1F000815
:10179000002C014048020020D802002090020020C6
:1017A00020030020F48400084C850008C0030020BA
:1017B00000100140D7F88810D7F88400FFF7B8F977
:1017C00003461846FFF784FC0346C7F8C030D7F835
:1017D000C000FFF763FA0346D7F880101846FFF7FA
:1017E000A7F903461846FFF773FC0346FB67D7F8D3
:1017F000C030B3F5E16F2DDDD7F88410D7F888003D
:10180000FFF75CFC0346002B12D0D7F88810AE48D7
:10181000FFF78EF90346D7F884101846FFF78AF9C8
:1018200003461846FFF754FC0346C7F8C03011E0E2
:10183000D7F88410A448FFF77BF90346D7F888103F
:101840001846FFF777F903461846FFF741FC0346B1
:10185000C7F8C030D7F8D800FFF720FA034619467A
:10186000D7F88800FFF70CFC0346002B5ED0D7F8B2
:10187000D800FFF713FA0346D7F888101846FFF789
:1018800057F9034691491846FFF718FC0346002B09
:1018900027D0D7F8D830C3F561631846FFF7FEF9B3
:1018A0000346D7F888101846FFF744F90346184650
:1018B000FEF7BAFDD7E92623FEF738FF02460B46AE
:1018C000104619464FF00002814BFEF705FE024616
:1018D0000B4610461946FFF7AFF80346C7F8CC3061
:1018E00085E0D7F8D800FFF7D9F90346D7F8881074
:1018F0001846FFF71DF903461846FEF795FDD7E990
:101900002623FEF713FF02460B46104619464FF0FA
:1019100000026F4BFEF7E0FD02460B4610461946EB
:10192000FFF78AF80346C7F8CC3060E0D7F8D80054
:10193000FFF7B4F903461946D7F88800FFF7F8F81F
:10194000034662491846FFF7B9FB0346002B2AD02D
:10195000D7F888105C48FFF7EBF803461C46D7F829
:10196000D800FFF79BF9034619462046FFF7E2F837
:1019700003461846FEF758FDD7E92623FEF7D6FEA4
:1019800002460B46104619464FF00002504BFEF738
:10199000A3FD02460B4610461946FFF74DF80346D5
:1019A000C7F8CC3023E0D7F8D800FFF777F9034623
:1019B0001946D7F88800FFF7BBF803461846FEF72C
:1019C00033FDD7E92623FEF7B1FE02460B4610464B
:1019D00019464FF000023E4BFEF77EFD02460B46D5
:1019E00010461946FFF728F80346C7F8CC30D7F859
:1019F000D400FFF753F903461946D7F88400FFF7E0
:101A00003FFB0346002B65D0D7F8D400FFF746F91B
:101A10000346D7F884101846FFF78AF803462B4987
:101A20001846FFF74BFB0346002B27D0D7F8D430DE
:101A3000C3F561631846FFF731F90346D7F8841000
:101A40001846FFF777F803461846FEF7EDFCD7E98E
:101A50002623FEF76BFE02460B46104619464FF052
:101A600000021B4BFEF738FD02460B461046194696
:101A7000FEF7E2FF0346C7F8D0308CE0D7F8D40079
:101A8000FFF70CF90346D7F884101846FFF750F813
:101A900003461846FEF7C8FCD7E92623FEF746FEA4
:101AA00002460B46104619464FF00002084BFEF75F
:101AB00013FD02460B4610461946FEF7BDFF0346CE
:101AC000C7F8D03067E000BF000061450000E14486
:101AD00000004E40D7F8D400FFF7E0F8034619465F
:101AE000D7F88400FFF724F80346C1491846FFF7EA
:101AF000E5FA0346002B2AD0D7F88410BD48FFF73B
:101B000017F803461C46D7F8D400FFF7C7F803467A
:101B100019462046FFF70EF803461846FEF784FCE8
:101B2000D7E92623FEF702FE02460B461046194669
:101B30004FF00002B04BFEF7CFFC02460B461046BA
:101B40001946FEF779FF0346C7F8D03023E0D7F8EF
:101B5000D400FFF7A3F803461946D7F88400FEF730
:101B6000E7FF03461846FEF75FFCD7E92623FEF79A
:101B7000DDFD02460B46104619464FF000029E4B13
:101B8000FEF7AAFC02460B4610461946FEF754FF24
:101B90000346C7F8D030D7F8C400FFF77FF80346F4
:101BA0001946D7F88000FFF76BFA0346002B5ED08A
:101BB000D7F8C400FFF772F80346D7F8801018462C
:101BC000FEF7B6FF03468A491846FFF777FA034641
:101BD000002B27D0D7F8C430C3F561631846FFF750
:101BE0005DF80346D7F880101846FEF7A3FF0346BA
:101BF0001846FEF719FCD7E92623FEF797FD0246A3
:101C00000B46104619464FF000027B4BFEF764FC72
:101C100002460B4610461946FEF70EFF0346C7F86C
:101C2000C83085E0D7F8C400FFF738F80346D7F886
:101C300080101846FEF77CFF03461846FEF7F4FBBB
:101C4000D7E92623FEF772FD02460B4610461946D9
:101C50004FF00002684BFEF73FFC02460B46104671
:101C60001946FEF7E9FE0346C7F8C83060E0D7F82A
:101C7000C400FFF713F803461946D7F88000FEF7B3
:101C800057FF03465A491846FFF718FA0346002B38
:101C90002AD0D7F880105748FEF74AFF03461C4663
:101CA000D7F8C400FEF7FAFF034619462046FEF7B0
:101CB00041FF03461846FEF7B7FBD7E92623FEF798
:101CC00035FD02460B46104619464FF000024A4BBE
:101CD000FEF702FC02460B4610461946FEF7ACFE24
:101CE0000346C7F8C83023E0D7F8C400FEF7D6FF94
:101CF00003461946D7F88000FEF71AFF0346184638
:101D0000FEF792FBD7E92623FEF710FD02460B46AD
:101D1000104619464FF00002374BFEF7DDFB024636
:101D20000B4610461946FEF787FE0346C7F8C83033
:101D3000D7F88800FFF7CCF90346C7F8D830D7F8B2
:101D40008400FFF7C5F90346C7F8D430D7F8800000
:101D5000FFF7BEF90346C7F8C430D7F8C030C7F85C
:101D6000BC30FB6FBB67254804F012FCD7F8A830E5
:101D70000293D7F8AC300193D7F8C0300093D7F86E
:101D8000D030D7F8CC20D7F8DC101D4804F09AFBEF
:101D90004FF4C8737B67B4233B670023FB66D7F817
:101DA000DC30013B032B00F2B68001A252F823F095
:101DB000C11D0008DB1D0008BD1E0008171F00081C
:101DC000104B40F2CA325A630E4B4FF47F72DA6303
:101DD0000C4B4FF47F721A64A2E0D7F8D0207B6FCF
:101DE0009A4211DA074BDA6B0132DA6315E000BF71
:101DF0000000E1440000614500004E406485000899
:101E00009C850008002C0140D7F8D0207B6F9A42B7
:101E100003DD464BDA6B013ADA63D7F8CC207B6FEF
:101E20009A4204DA414B1A6C01321A6408E0D7F87E
:101E3000CC207B6F9A4203DD3C4B1A6C013A1A644A
:101E4000D7F8C8207B6F9A4204DA384B5A6B0132BC
:101E50005A6308E0D7F8C8207B6F9A4203DD334B02
:101E60005A6B013A5A63314BDB6BC7F8B8302F4BD2
:101E70001B6CC7F8B4302D4B5B6BC7F8B030D7F88C
:101E8000C030322B49DDD7F88810D7F88400FFF72F
:101E900015F90346002B08D0244BDA6B013ADA63BC
:101EA000224B1A6C01321A6437E0204BDA6B013294
:101EB000DA631E4B1A6C013A1A642EE0D7F8C03070
:101EC000322B1ADDD7F88810D7F88400FFF7F6F820
:101ED0000346002B08D0154BDA6B013ADA63134B3B
:101EE0001A6C01321A641AE0104BDA6B0132DA63B1
:101EF0000E4B1A6C013A1A6411E0D7F8D030B3F5E2
:101F0000C07F0CDCD7F8CC30B3F5C07F07DC0223F0
:101F1000C7F8DC3003E000BF02E000BF00E000BF14
:101F2000642000F067FEFFF78FBB00BF002C01406C
:101F300080B584B000AFC7F804C00023FB8107F16F
:101F40000E014FF0FF330122034801F032FFFB89FD
:101F500018461037BD4680BDF001002080B582B024
:101F600000AFC7F804C000221021034801F00FF9A8
:101F700000BF0837BD4680BD0008014080B582B073
:101F800000AFC7F804C001221021034801F0FFF898
:101F900000BF0837BD4680BD0008014080B582B053
:101FA00000AFC7F804C0012000F024FE00BF0837CE
:101FB000BD4680BD80B590B000AF07F11803282260
:101FC0000021184604F0C4FB3B1D00221A605A6031
:101FD0009A60DA601A610123BB614FF4A023FB61B0
:101FE00000233B620123BB6202237B634FF48033F7
:101FF000BB634FF4E013FB6307F11803184601F0CD
:1020000001F90346002B01D000F0A6FA0F237B60F4
:102010000223BB600023FB604FF480633B6100231D
:102020007B613B1D0221184601F06EFB0346002B2D
:1020300001D000F091FA00BF4037BD4680BD0000DE
:1020400080B500AF174B184A1A60164B4FF48272D6
:102050005A60144B00229A60124B0022DA60114B36
:1020600000221A610F4B01225A610E4B4FF480225D
:102070009A610C4B3022DA610A4B00221A62094B3A
:1020800000225A62074B00229A62064B0A22DA6249
:10209000044801F0C7FC0346002B01D000F05CFAB5
:1020A00000BF80BDF00100200030014080B596B037
:1020B00000AF07F1480300221A605A609A60DA60A4
:1020C00007F1400300221A605A6007F1240300223E
:1020D0001A605A609A60DA601A615A619A613B1D0F
:1020E00020220021184604F033FB504B504A1A605E
:1020F0004E4B47225A604D4B00229A604B4B40F2A8
:10210000CF72DA60494B00221A61484B00225A61B3
:10211000464B00229A61454802F00CFA0346002B18
:1021200001D000F019FA4FF48053BB6407F1480363
:1021300019463E4802F042FE0346002B01D000F053
:102140000BFA3A4802F045FA0346002B01D000F0A2
:1021500003FA50233B6400237B6407F140031946D4
:10216000324803F0FFF90346002B01D000F0F4F9E8
:1021700060237B620023BB620023FB6200233B637E
:1021800000237B630023BB630023FB6307F124036D
:1021900000221946254802F04FFD0346002B01D0CE
:1021A00000F0DAF907F12403042219461F4802F06F
:1021B00043FD0346002B01D000F0CEF907F12403C4
:1021C00008221946194802F037FD0346002B01D0BA
:1021D00000F0C2F907F124030C221946134802F05B
:1021E0002BFD0346002B01D000F0B6F900237B60E5
:1021F0000023BB600023FB6000233B6100237B6165
:102200004FF40053BB6100233B623B1D1946074856
:1022100003F006FA0346002B01D000F09DF90348B5
:1022200000F0EEFA00BF5837BD4680BD48020020DE
:10223000002C014080B58CB000AF07F10C032422C4
:102240000021184604F084FA3B1D00221A605A60EF
:10225000214B4FF080421A601F4B01225A601E4BE7
:1022600000229A601C4B44F61F62DA601A4B00226F
:102270001A61194B00229A610123FB6000233B6124
:1022800001237B610023BB610023FB6100233B62D0
:1022900001237B620023BB620023FB6207F10C0376
:1022A00019460D4802F090FA0346002B01D000F0C9
:1022B00053F900237B600023BB603B1D1946064891
:1022C00003F050F90346002B01D000F045F900BFA0
:1022D0003037BD4680BD00BF9002002080B58CB075
:1022E00000AF07F10C0324220021184604F030FA55
:1022F0003B1D00221A605A60204B214A1A601F4B76
:1023000000225A601D4B00229A601C4B44F61F624B
:10231000DA601A4B00221A61184B00229A610123DD
:10232000FB6000233B6101237B610023BB61002331
:10233000FB6100233B6201237B620023BB6200231D
:10234000FB6207F10C0319460C4802F03DFA034604
:10235000002B01D000F000F900237B600023BB605C
:102360003B1D1946054803F0FDF80346002B01D03C
:1023700000F0F2F800BF3037BD4680BDD802002023
:102380000004004080B58CB000AF07F10C0324229C
:102390000021184604F0DCF93B1D00221A605A6047
:1023A000204B214A1A601F4B00225A601D4B00220D
:1023B0009A601C4B44F61F62DA601A4B00221A61C5
:1023C000184B00229A610123FB6000233B6101232B
:1023D0007B610023BB610023FB6100233B6201237F
:1023E0007B620023BB620023FB6207F10C031946EA
:1023F0000C4802F0E9F90346002B01D000F0ACF8DC
:1024000000237B600023BB603B1D1946054803F099
:10241000A9F80346002B01D000F09EF800BF30372A
:10242000BD4680BD200300200008004080B500AFFD
:10243000114B124A1A60104B4FF4E1325A600E4BA6
:1024400000229A600C4B0022DA600B4B00221A61CA
:10245000094B0C225A61084B00229A61064B00225C
:10246000DA61054803F03FF90346002B01D000F084
:1024700073F800BF80BD00BF680300200044004027
:1024800080B588B000AF07F1100300221A605A60CF
:102490009A60DA60244B9B69234A43F010039361EE
:1024A000214B9B6903F01003FB60FB681E4B9B698B
:1024B0001D4A43F0200393611B4B9B6903F02003EB
:1024C000BB60BB68184B9B69174A43F004039361D8
:1024D000154B9B6903F004037B607B68124B9B697F
:1024E000114A43F0080393610F4B9B6903F0080303
:1024F0003B603B684FF400533B610C4B7B61002316
:10250000BB6107F110031946094800F0A5FC002241
:102510000021282000F069FC282000F082FC00BF88
:102520002037BD4680BD00BF0010024000001110E2
:102530000010014080B582B000AF7860391D4FF6C1
:10254000FF730122034803F01EF97B681846083721
:10255000BD4680BD6803002080B400AF72B600BFE6
:10256000FEE7000080B485B000AF154B9B69144AAC
:1025700043F001039361124B9B6903F00103BB60BD
:10258000BB680F4BDB690E4A43F08053D3610C4BA1
:10259000DB6903F080537B607B680A4B5B68FB6000
:1025A000FB6823F0E063FB60FB6843F00073FB60B3
:1025B000044AFB68536000BF1437BD4680BC7047B7
:1025C000001002400000014080B588B000AF786084
:1025D00007F1100300221A605A609A60DA607B6883
:1025E0001B681B4A93422FD11A4B9B69194A43F42B
:1025F00080539361174B9B6903F48053FB60FB6826
:10260000144B9B69134A43F004039361114B9B697C
:1026100003F00403BB60BB68B0233B6102237B6112
:102620000323FB6107F1100319460B4800F014FC6B
:1026300040233B6100237B610023BB6107F1100352
:102640001946054800F008FC00BF2037BD4680BD94
:1026500000300140001002400008014080B485B005
:1026600000AF78607B681B68094A93420BD1094B25
:102670009B69084A43F400639361064B9B6903F42A
:102680000063FB60FB6800BF1437BD4680BC704729
:10269000002C01400010024080B58EB000AF786081
:1026A00007F1240300221A605A609A60DA607B689E
:1026B0001B68B3F1804F2CD14A4BDB69494A43F088
:1026C0000103D361474BDB6903F001033B623B6AC3
:1026D000444B9B69434A43F004039361414B9B691C
:1026E00003F00403FB61FB6903237B620023BB62ED
:1026F0000023FB6207F1240319463B4800F0ACFBC2
:10270000002200211C2000F070FB1C2000F089FB3F
:1027100064E07B681B68354A934236D1314BDB69F4
:10272000304A43F00203D3612E4BDB6903F002030E
:10273000BB61BB692B4B9B692A4A43F01003936131
:10274000284B9B6903F010037B617B69C0237B628C
:102750000023BB620023FB6207F1240319462448CF
:1027600000F07AFB234B5B687B637B6B23F4406355
:102770007B637B6B43F0E0637B637B6B43F4406381
:102780007B631C4A7B6B536028E07B681B681A4A9A
:10279000934223D1134BDB69124A43F00403D36104
:1027A000104BDB6903F004033B613B690D4B9B69F4
:1027B0000C4A43F0080393610A4B9B6903F008033A
:1027C000FB60FB68C0237B620023BB620023FB62CB
:1027D00007F124031946094800F03EFB00BF3837D3
:1027E000BD4680BD001002400008014000040040CA
:1027F000001001400000014000080040000C0140B2
:1028000080B588B000AF786007F1100300221A602D
:102810005A609A60DA607B681B68104A934218D14C
:102820000F4B9B690E4A43F0040393610C4B9B6969
:1028300003F00403FB60FB684FF470633B61022309
:102840007B610223FB6107F110031946054800F084
:1028500003FB00BF2037BD4680BD00BF002C0140F8
:10286000001002400008014080B588B000AF7860D9
:1028700007F1100300221A605A609A60DA607B68E0
:102880001B68154A934223D1144BDB69134A43F466
:102890000033D361114BDB6903F40033FB60FB6849
:1028A0000E4B9B690D4A43F0040393610B4B9B69EC
:1028B00003F00403BB60BB680C233B6102237B6114
:1028C0000223FB6107F110031946054800F0C4FA22
:1028D00000BF2037BD4680BD0044004000100240CC
:1028E0000008014080B400AFFEE780B400AFFEE70F
:1028F00080B400AFFEE780B400AFFEE780B400AF65
:10290000FEE780B400AF00BFBD4680BC704780B416
:1029100000AF00BFBD4680BC704780B400AF00BFB1
:10292000BD4680BC704780B500AF00F047F900BFDE
:1029300080BD000080B500AF024802F075F800BF0E
:1029400080BD00BF9002002080B500AF4FF4005062
:1029500000F036FC00BF80BD80B400AF01231846F4
:10296000BD4680BC704780B582B000AF78603960EA
:1029700003F040FF034616221A604FF0FF3318465B
:102980000837BD4680BD80B582B000AF78604FF09B
:10299000FF317868FFF7E7FFFEE780B586B000AF4C
:1029A000F860B9607A6000237B610AE0AFF30080D1
:1029B0000146BB685A1CBA60CAB21A707B690133FF
:1029C0007B617A697B689A42F0DB7B68184618372E
:1029D000BD4680BD80B586B000AFF860B9607A6052
:1029E00000237B6109E0BB685A1CBA601B7818465B
:1029F000FFF7A0FD7B6901337B617A697B689A42AE
:102A0000F1DB7B6818461837BD4680BD80B483B0C3
:102A100000AF78604FF0FF3318460C37BD4680BCDE
:102A2000704780B483B000AF786039603B684FF482
:102A300000525A60002318460C37BD4680BC7047D0
:102A400080B483B000AF7860012318460C37BD46D0
:102A500080BC704780B485B000AFF860B9607A6020
:102A6000002318461437BD4680BC704780B586B039
:102A700000AF7860144A154BD31A7B617B693B61C8
:102A8000134B1B68002B02D1114B124A1A60104BDA
:102A90001A687B6813443A699A4207D203F0AAFE87
:102AA00003460C221A604FF0FF3309E0084B1B6805
:102AB000FB60074B1A687B681344054A1360FB6888
:102AC00018461837BD4680BD0050002000040000A5
:102AD000C40300201805002080B400AF00BFBD462D
:102AE00080BC7047FFF7F8FF0B480C490C4A0023E5
:102AF00002E0D458C4500433C4188C42F9D3094AB4
:102B0000094C002301E013600432A242FBD303F01E
:102B100077FEFEF7A1FC704700000020D4010020E2
:102B200054890008D401002018050020FEE70000A9
:102B300080B500AF084B1B68074A43F010031360D1
:102B4000032000F047F9002000F008F8FFF70AFD25
:102B50000023184680BD00BF0020024080B582B02F
:102B600000AF7860124B1A68124B1B7819464FF46D
:102B70007A73B3FBF1F3B2FBF3F3184600F05FF99D
:102B80000346002B01D001230EE07B680F2B0AD8EF
:102B9000002279684FF0FF3000F027F9064A7B6881
:102BA0001360002300E0012318460837BD4680BDAE
:102BB00000000020080000200400002080B400AFC6
:102BC000054B1B781A46054B1B681344034A1360D8
:102BD00000BFBD4680BC704708000020C80300202D
:102BE00080B400AF024B1B681846BD4680BC7047DE
:102BF000C803002080B584B000AF7860FFF7F0FF15
:102C0000B8607B68FB60FB68B3F1FF3F05D00A4BFF
:102C10001B781A46FB681344FB6000BFFFF7E0FF18
:102C20000246BB68D31AFA689A42F7D800BF00BFC1
:102C30001037BD4680BD00BF0800002080B485B0BD
:102C400000AF78607B6803F00703FB600C4BDB6828
:102C5000BB60BA684FF6FF031340BB60FB681A0203
:102C6000BB68134343F0BF6343F40033BB60044AC3
:102C7000BB68D36000BF1437BD4680BC704700BF3F
:102C800000ED00E080B400AF044BDB681B0A03F0EA
:102C900007031846BD4680BC704700BF00ED00E04A
:102CA00080B483B000AF0346FB7197F90730002B67
:102CB0000BDBFB7903F01F02064997F907305B092C
:102CC000012000FA02F241F8232000BF0C37BD4674
:102CD00080BC704700E100E080B483B000AF0346E1
:102CE0003960FB7197F90730002B0ADB3B68DAB2D9
:102CF0000C4997F907301201D2B20B4483F8002334
:102D00000AE03B68DAB20849FB7903F00F03043BA1
:102D10001201D2B20B441A7600BF0C37BD4680BCFC
:102D2000704700BF00E100E000ED00E080B489B032
:102D300000AFF860B9607A60FB6803F00703FB61DD
:102D4000FB69C3F10703042B28BF0423BB61FB69A4
:102D50000433062B02D9FB69033B00E000237B61AF
:102D60004FF0FF32BB6902FA03F3DA43BB681A4043
:102D70007B699A404FF0FF317B6901FA03F3D94335
:102D80007B680B40134318462437BD4680BC704710
:102D900080B582B000AF78607B68013BB3F1807F83
:102DA00001D301230FE00A4A7B68013B53600F21E6
:102DB0004FF0FF30FFF790FF054B00229A60044B65
:102DC00007221A60002318460837BD4680BD00BFA1
:102DD00010E000E080B582B000AF78607868FFF75F
:102DE0002DFF00BF0837BD4680BD80B586B000AF5F
:102DF0000346B9607A60FB7300237B61FFF742FFF3
:102E000078617A68B9687869FFF790FF024697F9A8
:102E10000F3011461846FFF75FFF00BF1837BD4659
:102E200080BD80B582B000AF0346FB7197F90730D3
:102E30001846FFF735FF00BF0837BD4680BD80B597
:102E400082B000AF78607868FFF7A2FF03461846AB
:102E50000837BD4680BD000080B48BB000AF7860FD
:102E6000396000237B6200233B6269E101227B6AB7
:102E700002FA03F3FB613B681B68FA691340BB610C
:102E8000BA69FB699A4240F058813B685B689A4A8C
:102E900093425ED0984A934275D8984A934258D04C
:102EA000964A93426FD8964A934252D0944A93429C
:102EB00069D8944A93424CD0924A934263D8924A3A
:102EC000934246D0904A93425DD8122B2AD8122BB7
:102ED00059D801A252F823F0532F00082D2F0008D3
:102EE0003F2F0008812F0008872F0008872F000838
:102EF000872F0008872F0008872F0008872F0008DA
:102F0000872F0008872F0008872F0008872F0008C9
:102F1000872F0008872F0008872F0008352F00080B
:102F2000492F0008794A934213D02CE03B68DB68B4
:102F30003B6229E03B68DB6804333B6224E03B688A
:102F4000DB6808333B621FE03B68DB680C333B62A5
:102F50001AE03B689B68002B02D104233B6213E01C
:102F60003B689B68012B05D108233B627B68FA69AB
:102F70001A6109E008233B627B68FA695A6103E041
:102F800000233B6200E000BFBB69FF2B01D87B68D8
:102F900001E07B6804337B61BB69FF2B02D87B6A4D
:102FA0009B0002E07B6A083B9B003B617B691A68DF
:102FB0000F213B6901FA03F3DB431A40396A3B698D
:102FC00001FA03F31A437B691A603B685B6803F0FC
:102FD0008053002B00F0B1804D4B9B694C4A43F06D
:102FE000010393614A4B9B6903F00103BB60BB681B
:102FF000484A7B6A9B08023352F82330FB607B6AA5
:1030000003F003039B000F2202FA03F3DB43FA6889
:103010001340FB607B68404A934213D07B683F4A71
:1030200093420DD07B683E4A934207D07B683D4A6D
:10303000934201D1032306E0042304E0022302E0CB
:10304000012300E000237A6A02F003029200934019
:10305000FA681343FB602F497B6A9B080233FA68C6
:1030600041F823203B685B6803F48013002B06D0F3
:103070002D4B9A682C49BB6913438B6006E02A4BA1
:103080009A68BB69DB43284913408B603B685B68E7
:1030900003F40013002B06D0234BDA682249BB69E6
:1030A0001343CB6006E0204BDA68BB69DB431E4963
:1030B0001340CB603B685B6803F40033002B06D001
:1030C000194B5A681849BB6913434B6006E0164B0D
:1030D0005A68BB69DB43144913404B603B685B682B
:1030E00003F48033002B21D00F4B1A680E49BB69C3
:1030F00013430B6021E000BF0000321000003110CC
:103100000000221000002110000012100000111019
:10311000001002400000014000080140000C014086
:103120000010014000140140000401400B4B1A68DC
:10313000BB69DB43094913400B607B6A01337B6247
:103140003B681A687B6A22FA03F3002B7FF48EAE89
:1031500000BF00BF2C37BD4680BC70470004014053
:1031600080B485B000AF78600B467B807B689A683E
:103170007B881340002B02D00123FB7301E0002366
:10318000FB73FB7B18461437BD4680BC704780B488
:1031900083B000AF78600B467B8013467B707B78F2
:1031A000002B03D07A887B681A6103E07B881A04BD
:1031B0007B681A6100BF0C37BD4680BC70470000B9
:1031C00080B582B000AF0346FB80084B5A69FB888C
:1031D0001340002B06D0054AFB885361FB88184634
:1031E00000F006F800BF0837BD4680BD000401406E
:1031F00080B483B000AF0346FB8000BF0C37BD46F0
:1032000080BC704780B586B000AF78607B68002BCB
:1032100001D1012372E27B681B6803F00103002BDC
:1032200000F08780924B5B6803F00C03042B0CD0FA
:103230008F4B5B6803F00C03082B12D18C4B5B683F
:1032400003F48033B3F5803F0BD1894B1B6803F443
:103250000033002B6CD07B685B68002B68D10123A6
:103260004CE27B685B68B3F5803F06D1804B1B68FE
:103270007F4A43F4803313602EE07B685B68002B49
:103280000CD17B4B1B687A4A23F480331360784B54
:103290001B68774A23F4802313601DE07B685B681A
:1032A000B3F5A02F0CD1724B1B68714A43F48023F5
:1032B00013606F4B1B686E4A43F4803313600BE05E
:1032C0006B4B1B686A4A23F480331360684B1B689E
:1032D000674A23F4802313607B685B68002B13D05C
:1032E000FFF77EFC386108E0FFF77AFC02463B6995
:1032F000D31A642B01D9032300E25D4B1B6803F44E
:103300000033002BF0D014E0FFF76AFC386108E0CE
:10331000FFF766FC02463B69D31A642B01D90323ED
:10332000ECE1534B1B6803F40033002BF0D100E0B9
:1033300000BF7B681B6803F00203002B63D04C4B7B
:103340005B6803F00C03002B0BD0494B5B6803F068
:103350000C03082B1CD1464B5B6803F48033002B15
:1033600016D1434B1B6803F00203002B05D07B688A
:103370001B69012B01D00123C0E13D4B1B6823F0E9
:10338000F8027B685B69DB00394913430B603AE064
:103390007B681B69002B20D0364B01221A60FFF797
:1033A0001FFC386108E0FFF71BFC02463B69D31A9B
:1033B000022B01D90323A1E12D4B1B6803F002036B
:1033C000002BF0D02A4B1B6823F0F8027B685B6966
:1033D000DB00274913430B6015E0264B00221A60DF
:1033E000FFF7FEFB386108E0FFF7FAFB02463B6996
:1033F000D31A022B01D9032380E11D4B1B6803F074
:103400000203002BF0D17B681B6803F00803002B3C
:103410003AD07B689B69002B19D0174B01221A60A8
:10342000FFF7DEFB386108E0FFF7DAFB02463B6995
:10343000D31A022B01D9032360E10D4B5B6A03F021
:103440000203002BF0D0012000F0CEFA1CE00A4B62
:1034500000221A60FFF7C4FB38610FE0FFF7C0FBE2
:1034600002463B69D31A022B08D9032346E100BF69
:10347000001002400000424280044242924B5B6ACC
:1034800003F00203002BE9D17B681B6803F00403FF
:10349000002B00F0A6800023FB758B4BDB6903F04B
:1034A0008053002B0DD1884BDB69874A43F0805352
:1034B000D361854BDB6903F08053BB60BB6801239C
:1034C000FB75824B1B6803F48073002B18D17F4B74
:1034D0001B687E4A43F480731360FFF781FB3861F9
:1034E00008E0FFF77DFB02463B69D31A642B01D944
:1034F000032303E1754B1B6803F48073002BF0D0AA
:103500007B68DB68012B06D16F4B1B6A6E4A43F068
:10351000010313622DE07B68DB68002B0CD16A4B42
:103520001B6A694A23F001031362674B1B6A664AF0
:1035300023F0040313621CE07B68DB68052B0CD1CD
:10354000614B1B6A604A43F0040313625E4B1B6AC3
:103550005D4A43F0010313620BE05B4B1B6A5A4A5E
:1035600023F001031362584B1B6A574A23F00403EC
:1035700013627B68DB68002B15D0FFF731FB3861E5
:103580000AE0FFF72DFB02463B69D31A41F288326D
:10359000934201D90323B1E04B4B1B6A03F00203B2
:1035A000002BEED014E0FFF71BFB38610AE0FFF7B9
:1035B00017FB02463B69D31A41F28832934201D984
:1035C00003239BE0404B1B6A03F00203002BEED168
:1035D000FB7D012B05D13C4BDB693B4A23F080533B
:1035E000D3617B68DB69002B00F08780364B5B681A
:1035F00003F00C03082B61D07B68DB69022B46D1FA
:10360000334B00221A60FFF7EBFA386108E0FFF74E
:10361000E7FA02463B69D31A022B01D903236DE076
:10362000294B1B6803F00073002BF0D17B681B6AE9
:10363000B3F5803F08D1244B5B6823F400327B68EC
:103640009B68214913434B601F4B5B6823F4741242
:103650007B68196A7B685B6A0B431B4913434B60A9
:103660001B4B01221A60FFF7BBFA386108E0FFF735
:10367000B7FA02463B69D31A022B01D903233DE076
:10368000114B1B6803F00073002BF0D035E0104B9A
:1036900000221A60FFF7A4FA386108E0FFF7A0FAE9
:1036A00002463B69D31A022B01D9032326E0064BBD
:1036B0001B6803F00073002BF0D11EE07B68DB6910
:1036C000012B07D1012319E00010024000700040D7
:1036D000600042420B4B5B68FB60FB6803F4803286
:1036E0007B681B6A9A4206D1FB6803F470127B6800
:1036F0005B6A9A4201D0012300E000231846183784
:10370000BD4680BD0010024080B584B000AF786037
:1037100039607B68002B01D10123D0E06A4B1B6824
:1037200003F007033A689A4210D9674B1B6823F0ED
:10373000070265493B6813430B60634B1B6803F04A
:1037400007033A689A4201D00123B8E07B681B68FE
:1037500003F00203002B20D07B681B6803F00403F6
:10376000002B05D0594B5B68584A43F4E063536023
:103770007B681B6803F00803002B05D0534B5B6884
:10378000524A43F460535360504B5B6823F0F0029D
:103790007B689B684D4913434B607B681B6803F053
:1037A0000103002B40D07B685B68012B07D1474B9E
:1037B0001B6803F40033002B15D101237FE07B68E5
:1037C0005B68022B07D1414B1B6803F00073002B91
:1037D00009D1012373E03D4B1B6803F00203002B6A
:1037E00001D101236BE0394B5B6823F003027B6856
:1037F0005B68364913434B60FFF7F2F9F8600AE063
:10380000FFF7EEF90246FB68D31A41F28832934281
:1038100001D9032353E02D4B5B6803F00C027B6856
:103820005B689B009A42EBD1274B1B6803F00703B0
:103830003A689A4210D2244B1B6823F007022249AF
:103840003B6813430B60204B1B6803F007033A6887
:103850009A4201D0012332E07B681B6803F0040325
:10386000002B08D0194B5B6823F4E0627B68DB68AF
:10387000164913434B607B681B6803F00803002B59
:1038800009D0124B5B6823F460527B681B69DB0034
:103890000E4913434B6000F021F802460B4B5B6866
:1038A0001B0903F00F030A49CB5C22FA03F3094A10
:1038B0001360094B1B681846FFF750F900231846A0
:1038C0001037BD4680BD00BF0020024000100240FE
:1038D000B4850008000000200400002080B487B0F8
:1038E00000AF0023FB600023BB6000237B6100234B
:1038F0007B6000233B611E4B5B68FB60FB6803F051
:103900000C03042B02D0082B03D027E0194B3B619A
:1039100027E0FB689B0C03F00F03174AD35C7B6026
:10392000FB6803F48033002B10D0114B5B685B0CF9
:1039300003F00103114AD35CBB607B680D4A03FBB3
:1039400002F2BB68B2FBF3F37B6104E07B680C4AD4
:1039500002FB03F37B617B693B6102E0054B3B614A
:1039600000BF3B6918461C37BD4680BC704700BF8E
:103970000010024000127A00CC850008DC850008A7
:1039800000093D0080B400AF024B1B681846BD46DD
:1039900080BC70470000002080B500AFFFF7F2FF49
:1039A0000246054B5B681B0A03F007030349CB5C27
:1039B00022FA03F3184680BD00100240C4850008B7
:1039C00080B500AFFFF7DEFF0246054B5B68DB0A00
:1039D00003F007030349CB5C22FA03F3184680BDCA
:1039E00000100240C485000880B485B000AF786044
:1039F0000A4B1B680A4AA2FB03235B0A7A6802FB94
:103A000003F3FB6000BFFB685A1EFA60002BF9D17C
:103A100000BF00BF1437BD4680BC704700000020C7
:103A2000D34D621080B582B000AF78607B68002B08
:103A300001D1012376E07B685B6A002B08D17B68AB
:103A40005B68B3F5827F09D07B680022DA6105E00C
:103A50007B6800221A617B6800225A617B68002221
:103A60009A627B6893F85130DBB2002B06D17B68F9
:103A7000002283F850207868FEF7A6FD7B680222BA
:103A800083F851207B681B681A687B681B6822F0EA
:103A900040021A607B685B6803F482727B689B68F3
:103AA00003F404431A437B68DB6803F400631A439E
:103AB0007B681B6903F002031A437B685B6903F0B0
:103AC00001031A437B689B6903F400731A437B6804
:103AD000DB6903F038031A437B681B6A03F0800339
:103AE00042EA03017B689B6A03F400527B681B680F
:103AF0000A431A607B689B691A0C7B681B6802F09A
:103B000004025A607B681B68DA697B681B6822F4D0
:103B10000062DA617B6800225A657B68012283F8C3
:103B20005120002318460837BD4680BD80B588B0B7
:103B300000AFF860B9603B601346FB800023FB7761
:103B4000FB6893F85030012B01D102232DE1FB6873
:103B5000012283F85020FFF743F8B861FB88FB820D
:103B6000FB6893F85130DBB2012B02D00223FB77C4
:103B700016E1BB68002B02D0FB88002B02D1012389
:103B8000FB770DE1FB68032283F85120FB680022DC
:103B90005A65FB68BA681A63FB68FA889A86FB68FC
:103BA000FA88DA86FB6800229A63FB6800229A870B
:103BB000FB680022DA87FB6800225A64FB68002257
:103BC0001A64FB689B68B3F5004F0FD1FB681B6854
:103BD0001A68FB681B6822F040021A60FB681B68C9
:103BE0001A68FB681B6842F480421A60FB681B6815
:103BF0001B6803F04003402B07D0FB681B681A6862
:103C0000FB681B6842F040021A60FB68DB68B3F592
:103C1000006F4FD1FB685B68002B02D0FB8A012B41
:103C200042D1FB681B6B1A88FB681B68DA60FB6873
:103C30001B6B9A1CFB681A63FB68DB8E9BB2013B13
:103C40009AB2FB68DA862FE0FB681B689B6803F07A
:103C50000203022B12D1FB681B6B1A88FB681B68DE
:103C6000DA60FB681B6B9A1CFB681A63FB68DB8ECF
:103C70009BB2013B9AB2FB68DA8615E0FEF7B0FF13
:103C80000246BB69D31A3A689A4203D83B68B3F13B
:103C9000FF3F02D13B68002B06D10323FB77FB6873
:103CA000012283F851207BE0FB68DB8E9BB2002B66
:103CB000CAD150E0FB685B68002B02D0FB8A012B65
:103CC00044D1FB681A6BFB681B680C3312781A70BE
:103CD000FB681B6B5A1CFB681A63FB68DB8E9BB28C
:103CE000013B9AB2FB68DA8630E0FB681B689B6890
:103CF00003F00203022B13D1FB681A6BFB681B68ED
:103D00000C3312781A70FB681B6B5A1CFB681A6321
:103D1000FB68DB8E9BB2013B9AB2FB68DA8615E04A
:103D2000FEF75EFF0246BB69D31A3A689A4203D88F
:103D30003B68B3F1FF3F02D13B68002B06D1032360
:103D4000FB77FB68012283F8512029E0FB68DB8EBA
:103D50009BB2002BC9D1BA693968F86800F0CCFB76
:103D60000346002B02D0FB6820225A65FB689B6843
:103D7000002B0AD100233B61FB681B68DB683B61B9
:103D8000FB681B689B683B613B69FB685B6D002BB4
:103D900002D00123FB7703E0FB68012283F8512066
:103DA000FB68002283F85020FB7F18462037BD4671
:103DB00080BD80B588B002AFF860B9603B60134643
:103DC000FB800023FB75FB6893F85130DBB2012BBD
:103DD00002D00223FB75FBE0FB685B68B3F5827FD2
:103DE00012D1FB689B68002B0ED1FB68042283F87C
:103DF0005120FA883B6800931346BA68B968F8689E
:103E000000F0EFF80346E8E0FB6893F85030012B30
:103E100001D10223E1E0FB68012283F85020FEF784
:103E2000DFFE3861BB68002B02D0FB88002B02D17B
:103E30000123FB75CCE0FB68042283F85120FB686A
:103E400000225A65FB68BA689A63FB68FA889A8709
:103E5000FB68FA88DA87FB6800221A63FB68002295
:103E60009A86FB680022DA86FB6800221A64FB68E7
:103E700000225A64FB689B68B3F5004F0FD1FB68C2
:103E80001B681A68FB681B6822F040021A60FB6816
:103E90001B681A68FB681B6822F480421A60FB6882
:103EA0001B681B6803F04003402B07D0FB681B68AE
:103EB0001A68FB681B6842F040021A60FB68DB6806
:103EC000002B6AD132E0FB681B689B6803F001039A
:103ED000012B15D1FB681B6803F10C02FB689B6B7F
:103EE0001278D2B21A70FB689B6B5A1CFB689A63FB
:103EF000FB68DB8F9BB2013B9AB2FB68DA8715E067
:103F0000FEF76EFE02463B69D31A3A689A4203D81E
:103F10003B68B3F1FF3F02D13B68002B06D103237E
:103F2000FB75FB68012283F8512051E0FB68DB8FB1
:103F30009BB2002BC7D135E0FB681B689B6803F080
:103F40000103012B13D1FB681B68DA68FB689B6BCC
:103F500092B21A80FB689B6B9A1CFB689A63FB68A1
:103F6000DB8F9BB2013B9AB2FB68DA8715E0FEF764
:103F700037FE02463B69D31A3A689A4203D83B6837
:103F8000B3F1FF3F02D13B68002B06D10323FB7541
:103F9000FB68012283F851201AE0FB68DB8F9BB29B
:103FA000002BC9D13A693968F86800F053FA034622
:103FB000002B02D0FB6820225A65FB685B6D002B4A
:103FC00002D00123FB7503E0FB68012283F8512036
:103FD000FB68002283F85020FB7D18461837BD4649
:103FE00080BD80B58CB000AFF860B9607A607B802E
:103FF0000123FB62002387F82B30FB6893F85030D5
:10400000012B01D1022398E1FB68012283F85020A3
:10401000FEF7E6FD7862FB6893F8513087F82330AD
:10402000FB685B68FB617B887B8397F82330012BFF
:104030000FD0FB69B3F5827F07D1FB689B68002B2B
:1040400003D197F82330042B03D0022387F82B30B9
:104050006DE1BB68002B05D07B68002B02D07B880C
:10406000002B03D1012387F82B3060E1FB6893F824
:104070005130DBB2042B03D0FB68052283F85120BA
:10408000FB6800225A65FB687A689A63FB687A8845
:10409000DA87FB687A889A87FB68BA681A63FB68D4
:1040A0007A88DA86FB687A889A86FB6800221A6426
:1040B000FB6800225A64FB681B681B6803F040031E
:1040C000402B07D0FB681B681A68FB681B6842F02E
:1040D00040021A60FB68DB68B3F5006F7CD1FB68B7
:1040E0005B68002B02D07B8B012B6AD1FB681B6BBA
:1040F0001A88FB681B68DA60FB681B6B9A1CFB68FC
:104100001A63FB68DB8E9BB2013B9AB2FB68DA86CE
:1041100057E0FB681B689B6803F00203022B1BD16E
:10412000FB68DB8E9BB2002B16D0FB6A012B13D1F0
:10413000FB681B6B1A88FB681B68DA60FB681B6BEB
:104140009A1CFB681A63FB68DB8E9BB2013B9AB238
:10415000FB68DA860023FB62FB681B689B6803F040
:104160000103012B19D1FB68DB8F9BB2002B14D00C
:10417000FB681B68DA68FB689B6B92B21A80FB686D
:104180009B6B9A1CFB689A63FB68DB8F9BB2013BBD
:104190009AB2FB68DA870123FB62FEF721FD024633
:1041A0007B6AD31ABA6B9A420BD8BB6BB3F1FF3F51
:1041B00007D0032387F82B30FB68012283F85120B6
:1041C000B5E0FB68DB8E9BB2002BA2D1FB68DB8FD6
:1041D0009BB2002B9DD180E0FB685B68002B02D076
:1041E0007B8B012B6FD1FB681A6BFB681B680C3350
:1041F00012781A70FB681B6B5A1CFB681A63FB6809
:10420000DB8E9BB2013B9AB2FB68DA865BE0FB680F
:104210001B689B6803F00203022B1CD1FB68DB8E3A
:104220009BB2002B17D0FB6A012B14D1FB681A6BD1
:10423000FB681B680C3312781A70FB681B6B5A1CE6
:10424000FB681A63FB68DB8E9BB2013B9AB2FB688A
:10425000DA860023FB62FB681B689B6803F001039E
:10426000012B19D1FB68DB8F9BB2002B14D0FB68AC
:104270001B68DA68FB689B6BD2B21A70FB689B6B99
:104280005A1CFB689A63FB68DB8F9BB2013B9AB2B6
:10429000FB68DA870123FB62FEF7A2FC02467B6A19
:1042A000D31ABA6B9A4203D8BB6BB3F1FF3F02D16A
:1042B000BB6B002B07D1032387F82B30FB6801224F
:1042C00083F8512033E0FB68DB8E9BB2002B9ED13C
:1042D000FB68DB8F9BB2002B99D17A6AB96BF868C7
:1042E00000F00AF90346002B06D0012387F82B3093
:1042F000FB6820225A651AE0FB689B68002B0AD1F4
:1043000000237B61FB681B68DB687B61FB681B68C3
:104310009B687B617B69FB685B6D002B03D001238D
:1043200087F82B3003E0FB68012283F85120FB68FB
:10433000002283F8502097F82B3018463037BD46BE
:1043400080BD000080B588B000AFF860B9603B6008
:104350001346FB71FEF744FC0246BB6A9B1A3A689F
:104360001344FB61FEF73CFCB861394B1B685B01F1
:104370001B0DFA6902FB03F37B6154E03B68B3F168
:10438000FF3F50D0FEF72CFC0246BB69D31AFA69F6
:104390009A4202D9FB69002B3DD1FB681B685A6821
:1043A000FB681B6822F0E0025A60FB685B68B3F5AB
:1043B000827F11D1FB689B68B3F5004F04D0FB6886
:1043C0009B68B3F5806F07D1FB681B681A68FB68B0
:1043D0001B6822F040021A60FB689B6AB3F5005F1D
:1043E0000FD1FB681B681A68FB681B6822F4005237
:1043F0001A60FB681B681A68FB681B6842F400526D
:104400001A60FB68012283F85120FB68002283F8C0
:104410005020032317E07B69002B01D10023FB61AF
:104420007B69013B7B61FB681B689A68BB68134032
:10443000BA689A420CBF01230023DBB21A46FB790B
:104440009A429BD1002318462037BD4680BD00BF4D
:104450000000002080B586B002AFF860B9607A60D5
:10446000FB685B68B3F5827F11D1FB689B68B3F58D
:10447000004F04D0FB689B68B3F5806F07D1FB68E1
:104480001B681A68FB681B6822F040021A60FB6810
:104490005B68B3F5827F17D1FB689B68B3F5806FCB
:1044A00012D17B680093BB6800220121F868FFF7F6
:1044B00049FF0346002B1AD0FB685B6D43F02002D6
:1044C000FB685A65032313E07B680093BB680022F6
:1044D0008021F868FFF736FF0346002B07D0FB6802
:1044E0005B6D43F02002FB685A65032300E0002364
:1044F00018461037BD4680BD80B586B002AFF86063
:10450000B9607A607B680093BB6800228021F868FC
:10451000FFF718FF0346002B07D0FB685B6D43F0E5
:104520002002FB685A65032300E000231846103779
:10453000BD4680BD80B582B000AF78607B68002B3F
:1045400001D1012341E07B6893F83D30DBB2002BC1
:1045500006D17B68002283F83C207868FEF77EF85D
:104560007B68022283F83D207B681A687B680433ED
:104570001946104600F052FD7B68012283F8462060
:104580007B68012283F83E207B68012283F83F206C
:104590007B68012283F840207B68012283F8412058
:1045A0007B68012283F842207B68012283F8432044
:1045B0007B68012283F844207B68012283F8452030
:1045C0007B68012283F83D20002318460837BD464A
:1045D00080BD80B582B000AF78607B68002B01D1D0
:1045E000012341E07B6893F83D30DBB2002B06D11C
:1045F0007B68002283F83C20786800F039F87B68FB
:10460000022283F83D207B681A687B6804331946D0
:10461000104600F003FD7B68012283F846207B688A
:10462000012283F83E207B68012283F83F207B68CB
:10463000012283F840207B68012283F841207B68B7
:10464000012283F842207B68012283F843207B68A3
:10465000012283F844207B68012283F845207B688F
:10466000012283F83D20002318460837BD4680BD4F
:1046700080B483B000AF786000BF0C37BD4680BC0B
:104680007047000080B584B000AF786039603B6847
:10469000002B09D17B6893F83E30DBB2012B14BFAD
:1046A00001230023DBB222E03B68042B09D17B68A5
:1046B00093F83F30DBB2012B14BF01230023DBB2A0
:1046C00015E03B68082B09D17B6893F84030DBB2DA
:1046D000012B14BF01230023DBB208E07B6893F8B1
:1046E0004130DBB2012B14BF01230023DBB2002BCE
:1046F00001D001235EE03B68002B04D17B680222DD
:1047000083F83E2013E03B68042B04D17B6802222F
:1047100083F83F200BE03B68082B04D17B68022222
:1047200083F8402003E07B68022283F841207B6805
:104730001B6801223968184600F0F0FE7B681B6890
:104740001E4A934207D17B681B685A6C7B681B68C2
:1047500042F400425A647B681B68184A93420ED0A8
:104760007B681B68B3F1804F09D07B681B68144AD3
:10477000934204D07B681B68124A934211D17B6834
:104780001B689B6803F00703FB60FB68062B10D0D7
:104790007B681B681A687B681B6842F001021A601C
:1047A00007E07B681B681A687B681B6842F001029F
:1047B0001A60002318461037BD4680BD002C01400A
:1047C000000400400008004080B586B000AF78606B
:1047D00039607B68002B01D1012393E07B6893F85B
:1047E0003D30DBB2002B06D17B68002283F83C20F1
:1047F0007868FDF751FF7B68022283F83D207B68D3
:104800001B689B687A68126823F4804323F00703CF
:1048100093607B681A687B6804331946104600F081
:10482000FDFB7B681B689B687B617B681B689B69E1
:104830003B617B681B681B6AFB603B681B687A698D
:1048400013437B613B6923F4407323F003033B6113
:104850003B689A683B689B691B0213433A691343A0
:104860003B613B6923F4406323F00C033B613B69EC
:1048700023F4704323F0F0033B613B68DA683B6844
:10488000DB691B0213433A6913433B613B681B69B5
:104890001A013B681B6A1B0313433A6913433B61CC
:1048A000FB6823F02203FB603B685A683B685B6946
:1048B0001B011343FA681343FB607B681B687A692A
:1048C0009A607B681B683A699A617B681B68FA6822
:1048D0001A627B68012283F846207B68012283F8F4
:1048E0003E207B68012283F83F207B68012283F809
:1048F00042207B68012283F843207B68012283F8F1
:104900003D20002318461837BD4680BD80B584B0D1
:1049100000AF786039607B6893F83E30FB737B684A
:1049200093F83F30BB737B6893F842307B737B68AE
:1049300093F843303B733B68002B10D1FB7B012B7A
:1049400002D17B7B012B01D0012369E07B6802222D
:1049500083F83E207B68022283F8422031E03B68E6
:10496000042B10D1BB7B012B02D13B7B012B01D04F
:10497000012355E07B68022283F83F207B680222F6
:1049800083F843201DE0FB7B012B08D1BB7B012B6F
:1049900005D17B7B012B02D13B7B012B01D0012375
:1049A0003EE07B68022283F83E207B68022283F887
:1049B0003F207B68022283F842207B68022283F832
:1049C00043203B68002B03D03B68042B08D00FE04A
:1049D0007B681B6801220021184600F09FFD16E04D
:1049E0007B681B6801220421184600F097FD0EE049
:1049F0007B681B6801220021184600F08FFD7B6850
:104A00001B6801220421184600F088FD00BF7B6866
:104A10001B681A687B681B6842F001021A60002359
:104A200018461037BD4680BD80B582B000AF7860B3
:104A30007B681B681B6903F00203022B22D17B6891
:104A40001B68DB6803F00203022B1BD17B681B6829
:104A50006FF002021A617B6801221A777B681B687B
:104A60009B6903F00303002B03D07868FCF768FC14
:104A700005E0786800F0B7FA786800F0BDFA7B6866
:104A800000221A777B681B681B6903F00403042B60
:104A900022D17B681B68DB6803F00403042B1BD165
:104AA0007B681B686FF004021A617B6802221A7728
:104AB0007B681B689B6903F44073002B03D0786804
:104AC000FCF73EFC05E0786800F08DFA786800F0AD
:104AD00093FA7B6800221A777B681B681B6903F0D6
:104AE0000803082B22D17B681B68DB6803F00803EE
:104AF000082B1BD17B681B686FF008021A617B686A
:104B000004221A777B681B68DB6903F00303002B20
:104B100003D07868FCF714FC05E0786800F063FACD
:104B2000786800F069FA7B6800221A777B681B6856
:104B30001B6903F01003102B22D17B681B68DB6814
:104B400003F01003102B1BD17B681B686FF0100261
:104B50001A617B6808221A777B681B68DB6903F49B
:104B60004073002B03D07868FCF7EAFB05E0786817
:104B700000F039FA786800F03FFA7B6800221A7773
:104B80007B681B681B6903F00103012B0ED17B6856
:104B90001B68DB6803F00103012B07D17B681B68EE
:104BA0006FF001021A61786800F014FA7B681B68E4
:104BB0001B6903F08003802B0ED17B681B68DB68C8
:104BC00003F08003802B07D17B681B686FF08002A5
:104BD0001A61786800F07EFD7B681B681B6903F032
:104BE0004003402B0ED17B681B68DB6803F0400359
:104BF000402B07D17B681B686FF040021A61786810
:104C000000F003FA7B681B681B6903F02003202B6C
:104C10000ED17B681B68DB6803F02003202B07D1D3
:104C20007B681B686FF020021A61786800F049FD0C
:104C300000BF0837BD4680BD80B586B000AFF860C4
:104C4000B9607A600023FB75FB6893F83C30012B58
:104C500001D10223AEE0FB68012283F83C207B688F
:104C60000C2B00F29F8001A252F823F0A14C000807
:104C7000A54D0008A54D0008A54D0008E14C000811
:104C8000A54D0008A54D0008A54D0008234D0008BE
:104C9000A54D0008A54D0008A54D0008634D00086E
:104CA000FB681B68B968184600F01AFAFB681B68B5
:104CB0009A69FB681B6842F008029A61FB681B68EE
:104CC0009A69FB681B6822F004029A61FB681B6802
:104CD0009969BB681A69FB681B680A439A6164E0BA
:104CE000FB681B68B968184600F060FAFB681B682F
:104CF0009A69FB681B6842F400629A61FB681B6852
:104D00009A69FB681B6822F480629A61FB681B68E1
:104D10009969BB681B691A02FB681B680A439A61A0
:104D200043E0FB681B68B968184600F0A9FAFB6805
:104D30001B68DA69FB681B6842F00802DA61FB68ED
:104D40001B68DA69FB681B6822F00402DA61FB6801
:104D50001B68D969BB681A69FB681B680A43DA617A
:104D600023E0FB681B68B968184600F0F3FAFB689B
:104D70001B68DA69FB681B6842F40062DA61FB6851
:104D80001B68DA69FB681B6822F48062DA61FB68E1
:104D90001B68D969BB681B691A02FB681B680A4358
:104DA000DA6102E00123FB7500BFFB68002283F893
:104DB0003C20FB7D18461837BD4680BD80B584B0C9
:104DC00000AF786039600023FB737B6893F83C3058
:104DD000012B01D10223B4E07B68012283F83C203F
:104DE0007B68022283F83D207B681B689B68BB6060
:104DF000BB6823F07703BB60BB6823F47F43BB60D1
:104E00007B681B68BA689A603B681B68B3F5005FF3
:104E10003ED0B3F5005F00F28780B3F5805F00F00D
:104E20008680B3F5805F7FD8702B1AD0702B7BD82B
:104E3000602B50D0602B77D8502B3CD0502B73D8A0
:104E4000402B58D0402B6FD8302B64D0302B6BD8F0
:104E5000202B60D0202B67D8002B5CD0102B5AD091
:104E600062E07B6818683B6899683B685A683B68F1
:104E7000DB6800F034FB7B681B689B68BB60BB6829
:104E800043F07703BB607B681B68BA689A604FE0A9
:104E90007B6818683B6899683B685A683B68DB68C0
:104EA00000F01DFB7B681B689A687B681B6842F4F6
:104EB00080429A603CE07B6818683B6859683B68B0
:104EC000DB681A4600F094FA7B681B68502118468C
:104ED00000F0EBFA2CE07B6818683B6859683B6887
:104EE000DB681A4600F0B2FA7B681B68602118463E
:104EF00000F0DBFA1CE07B6818683B6859683B6887
:104F0000DB681A4600F074FA7B681B68402118467B
:104F100000F0CBFA0CE07B681A683B681B68194606
:104F2000104600F0C2FA03E00123FB7300E000BF6B
:104F30007B68012283F83D207B68002283F83C20B7
:104F4000FB7B18461037BD4680BD000080B485B09D
:104F500000AF786039600023FB603B680C2B31D8D0
:104F600001A252F823F000BF9D4F0008C54F000872
:104F7000C54F0008C54F0008A74F0008C54F0008DF
:104F8000C54F0008C54F0008B14F0008C54F0008C5
:104F9000C54F0008C54F0008BB4F00087B681B6861
:104FA0005B6BFB600FE07B681B689B6BFB600AE040
:104FB0007B681B68DB6BFB6005E07B681B681B6C18
:104FC000FB6000E000BFFB6818461437BD4680BC9C
:104FD000704700BF80B483B000AF786000BF0C376B
:104FE000BD4680BC704780B483B000AF786000BF1E
:104FF0000C37BD4680BC704780B483B000AF78608A
:1050000000BF0C37BD4680BC704780B483B000AF92
:10501000786000BF0C37BD4680BC704780B485B057
:1050200000AF786039607B681B68FB607B68294A49
:1050300093420BD07B68B3F1804F07D07B68264A40
:10504000934203D07B68254A934208D1FB6823F042
:105050007003FB603B685B68FA681343FB607B6826
:105060001C4A93420BD07B68B3F1804F07D07B681A
:10507000194A934203D07B68184A934208D1FB68CF
:1050800023F44073FB603B68DB68FA681343FB6002
:10509000FB6823F080023B685B691343FB607B681D
:1050A000FA681A603B689A687B68DA623B681A683B
:1050B0007B689A627B68074A934203D13B681A690E
:1050C0007B681A637B6801225A6100BF1437BD46B2
:1050D00080BC7047002C01400004004000080040E4
:1050E00080B487B000AF786039607B681B6A7B61F1
:1050F0007B681B6A23F001027B681A627B685B682D
:105100003B617B689B69FB60FB6823F07003FB607D
:10511000FB6823F00303FB603B681B68FA681343DA
:10512000FB607B6923F002037B613B689B687A69C3
:1051300013437B617B681C4A93420CD17B6923F04B
:1051400008037B613B68DB687A6913437B617B6999
:1051500023F004037B617B68134A934211D13B69BE
:1051600023F480733B613B6923F400733B613B682C
:105170005B693A6913433B613B689B693A69134336
:105180003B617B683A695A607B68FA689A613B6860
:105190005A687B685A637B687A691A6200BF1C3759
:1051A000BD4680BC704700BF002C014080B487B072
:1051B00000AF786039607B681B6A7B617B681B6A23
:1051C00023F010027B681A627B685B683B617B6836
:1051D0009B69FB60FB6823F4E043FB60FB6823F4FE
:1051E0004073FB603B681B681B02FA681343FB605B
:1051F0007B6923F020037B613B689B681B017A6914
:1052000013437B617B681D4A93420DD17B6923F078
:1052100080037B613B68DB681B017A6913437B6118
:105220007B6923F040037B617B68144A934213D16E
:105230003B6923F480633B613B6923F400633B617A
:105240003B685B699B003A6913433B613B689B6920
:105250009B003A6913433B617B683A695A607B68FB
:10526000FA689A613B685A687B689A637B687A69D6
:105270001A6200BF1C37BD4680BC7047002C01403D
:1052800080B487B000AF786039607B681B6A7B614F
:105290007B681B6A23F480727B681A627B685B6898
:1052A0003B617B68DB69FB60FB6823F07003FB609C
:1052B000FB6823F00303FB603B681B68FA68134339
:1052C000FB607B6923F400737B613B689B681B0276
:1052D0007A6913437B617B681D4A93420DD17B69D8
:1052E00023F400637B613B68DB681B027A6913432C
:1052F0007B617B6923F480637B617B68144A934202
:1053000013D13B6923F480533B613B6923F4005381
:105310003B613B685B691B013A6913433B613B6836
:105320009B691B013A6913433B617B683A695A6088
:105330007B68FA68DA613B685A687B68DA637B6885
:105340007A691A6200BF1C37BD4680BC704700BF37
:10535000002C014080B487B000AF786039607B6872
:105360001B6A3B617B681B6A23F480527B681A626C
:105370007B685B687B617B68DB69FB60FB6823F4AF
:10538000E043FB60FB6823F44073FB603B681B68F1
:105390001B02FA681343FB603B6923F400533B6133
:1053A0003B689B681B033A6913433B617B680F4A68
:1053B000934209D17B6923F480437B613B685B693D
:1053C0009B017A6913437B617B687A695A607B68C9
:1053D000FA68DA613B685A687B681A647B683A69E4
:1053E0001A6200BF1C37BD4680BC7047002C0140CC
:1053F00080B487B000AFF860B9607A60FB681B6A60
:105400007B61FB681B6A23F00102FB681A62FB6880
:105410009B693B613B6923F0F0033B617B681B01A7
:105420003A6913433B617B6923F00A037B617A6924
:10543000BB6813437B61FB683A699A61FB687A69D0
:105440001A6200BF1C37BD4680BC704780B487B06D
:1054500000AFF860B9607A60FB681B6A7B61FB682B
:105460001B6A23F01002FB681A62FB689B693B61B0
:105470003B6923F470433B617B681B033A69134328
:105480003B617B6923F0A0037B61BB681B017A69E8
:1054900013437B61FB683A699A61FB687A691A6217
:1054A00000BF1C37BD4680BC704780B485B000AFDC
:1054B000786039607B689B68FB60FB6823F0700351
:1054C000FB603A68FB68134343F00703FB607B68AB
:1054D000FA689A6000BF1437BD4680BC704780B43C
:1054E00087B000AFF860B9607A603B60FB689B688A
:1054F0007B617B6923F47F437B613B681A027B6895
:105500001A43BB6813437A6913437B61FB687A696A
:105510009A6000BF1C37BD4680BC704780B487B01E
:1055200000AFF860B9607A60BB6803F01F03012226
:1055300002FA03F37B61FB681A6A7B69DB431A405A
:10554000FB681A62FB681A6ABB6803F01F0379687C
:1055500001FA03F31A43FB681A6200BF1C37BD4609
:1055600080BC704780B485B000AF786039607B68DC
:1055700093F83C30012B01D1022346E07B680122E5
:1055800083F83C207B68022283F83D207B681B68FF
:105590005B68FB607B681B689B68BB60FB6823F0F3
:1055A0007003FB603B681B68FA681343FB607B6811
:1055B0001B68FA685A607B681B68164A93420ED0D3
:1055C0007B681B68B3F1804F09D07B681B68124A67
:1055D000934204D07B681B68104A93420CD1BB688D
:1055E00023F08003BB603B685B68BA681343BB6011
:1055F0007B681B68BA689A607B68012283F83D204B
:105600007B68002283F83C20002318461437BD46EF
:1056100080BC7047002C014000040040000800409E
:1056200080B485B000AF786039600023FB607B6890
:1056300093F83C30012B01D102233DE07B6801222D
:1056400083F83C20FB6823F0FF023B68DB681343D0
:10565000FB60FB6823F440723B689B681343FB606C
:10566000FB6823F480623B685B681343FB60FB6864
:1056700023F400623B681B681343FB60FB6823F460
:1056800080523B681B691343FB60FB6823F40052A4
:105690003B685B691343FB60FB6823F480423B6813
:1056A000DB691343FB607B681B68FA685A647B689C
:1056B000002283F83C20002318461437BD4680BCE6
:1056C000704780B483B000AF786000BF0C37BD4630
:1056D00080BC704780B483B000AF786000BF0C37E7
:1056E000BD4680BC704780B582B000AF78607B68F3
:1056F000002B01D1012342E07B6893F84130DBB2FB
:10570000002B06D17B68002283F840207868FDF7E3
:10571000ABF87B68242283F841207B681B68DA6839
:105720007B681B6822F40052DA60786800F01CF98C
:105730007B681B681A697B681B6822F490421A61B7
:105740007B681B685A697B681B6822F02A025A61D1
:105750007B681B68DA687B681B6842F40052DA6079
:105760007B6800225A647B68202283F841207B6892
:10577000202283F842207B6800225A6300231846C7
:105780000837BD4680BD80B58AB002AFF860B96009
:105790003B601346FB8000237B61FB6893F841303C
:1057A000DBB2202B6DD1BB68002B02D0FB88002B15
:1057B00001D1012366E0FB6800225A64FB682122C4
:1057C00083F84120FDF70CFA7861FB68FA889A8427
:1057D000FB68FA88DA84FB689B68B3F5805F08D1C0
:1057E000FB681B69002B04D10023FB61BB68BB6114
:1057F00003E0BB68FB610023BB612AE03B680093C8
:105800007B6900228021F86800F040F80346002BF5
:1058100001D0032336E0FB69002B0BD1BB691B8849
:105820001A46FB681B68C2F308025A60BB69023360
:10583000BB6107E0FB691A78FB681B685A60FB696B
:105840000133FB61FB68DB8C9BB2013B9AB2FB68C6
:10585000DA84FB68DB8C9BB2002BCFD13B680093D2
:105860007B6900224021F86800F010F80346002B05
:1058700001D0032306E0FB68202283F841200023A7
:1058800000E0022318462037BD4680BD80B590B0A9
:1058900000AFF860B9603B601346FB7150E0BB6C31
:1058A000B3F1FF3F4CD0BB6C002B07D0FDF798F94C
:1058B00002463B68D31ABA6C9A4241D2FB681B6815
:1058C0000C33BB62BB6A53E8003F7B627B6A23F404
:1058D000D073FB63FB681B680C33FA6B7A633B6322
:1058E000396B7A6B41E80023FB62FB6A002BE5D140
:1058F000FB681B6814337B617B6953E8003F3B61A5
:105900003B6923F00103BB63FB681B681433BA6B6C
:105910003A62FB61F9693A6A41E80023BB61BB69FD
:10592000002BE5D1FB68202283F84120FB68202270
:1059300083F84220FB68002283F8402003230FE015
:10594000FB681B681A68BB681340BA689A420CBFB0
:1059500001230023DBB21A46FB799A429FD0002331
:1059600018464037BD4680BD80B584B000AF786032
:105970007B681B681B6923F440517B68DA687B688D
:105980001B680A431A617B689A687B681B691A4323
:105990007B685B691343BB607B681B68DB6823F42F
:1059A000B05323F00C037A681268B9680B43D360D4
:1059B0007B681B685B6923F440717B689A697B682C
:1059C0001B680A435A617B681B682C4A934203D1C7
:1059D000FDF7F6FFF86002E0FDF7DEFFF860FA6819
:1059E00013469B0013449A001A447B685B689B0033
:1059F000B2FBF3F3224AA2FB03235B091901FA6805
:105A000013469B0013449A001A447B685B689B0012
:105A1000B2FBF3F21A4BA3FB02035B09642000FB09
:105A200003F3D31A1B013233154AA2FB03235B098C
:105A300003F0F0031944FA6813469B0013449A00DC
:105A40001A447B685B689B00B2FBF3F20C4BA3FB30
:105A500002035B09642000FB03F3D31A1B013233FA
:105A6000074AA2FB03235B0903F00F027B681B6854
:105A70000A449A6000BF1037BD4680BD003801401F
:105A80001F85EB51002B2DE9F0471F46BBBF03F1EB
:105A900000431F4600232D2388B01446129A109D00
:105AA0001370149BDDF84CA023F02008B8F1460FCA
:105AB00005D0B8F1450F00D10135022300E00323E2
:105AC00007AA049206AACDE902A2CDE90035224632
:105AD0003B4600F055FFB8F1470F064602D1119B37
